:100000000C9490000C940F020C94E8010C94B8002E
:100010000C94B8000C94B8000C94B8000C94B80080
:100020000C94B8000C94B8000C94B8000C94B80070
:100030000C94B8000C94B8000C94F3030C9438049E
:100040000C949E010C94B8000C943D020C945B023D
:100050000C94B8000C94B8000C94B8000C94B80040
:100060000C94B8000C94B8001112131415160A0B56
:100070000C0D0E0F000102030405000102050D41E5
:10008000524D3B414E474C453B484F52495A4F4ECB
:100090003B4D41473B4245455045523B00524F4C3A
:1000A0004C3B50495443483B5941573B414C543BCE
:1000B000506F733B506F73523B4E6176523B4C45D1
:1000C00056454C3B4D41473B56454C3B00000000DC
:1000D0000800020100000304070000000000000007
:1000E0000000000000250028002B00000000002474
:1000F0000027002A00040404040404040402020289
:100100000202020303030303030102040810204058
:100110008001020408102001020408102000D419F4
:1001200011241FBECFEFD8E0DEBFCDBF11E0A0E0AD
:10013000B1E0E2E9F9E302C005900D92A635B107FE
:10014000D9F725E0A6E5B1E001C01D92A83CB207B1
:10015000E1F710E0C0E9D0E004C02197FE010E9461
:10016000C11CCF38D107C9F70E94E0090C94C71C05
:100170000C940000089590E0FC01E353FF4F34918C
:10018000FC01E75FFE4F2491FC01EB50FF4FE4912F
:10019000EE2309F43BC0332339F1333091F038F4C6
:1001A0003130A9F0323001F584B58F7D12C037307F
:1001B00091F03830A1F03430B9F4809180008F7D17
:1001C00003C0809180008F77809380000DC084B53C
:1001D0008F7784BD09C08091B0008F7703C0809174
:1001E000B0008F7D8093B000F0E0EE0FFF1FEF5165
:1001F000FF4FA591B4918FB7F894EC91611103C0B2
:1002000020952E2301C02E2B2C938FBF08953FB72E
:10021000F8948091420590914305A0914405B091D6
:10022000450526B5A89B05C02F3F19F00196A11DD5
:10023000B11D3FBFBA2FA92F982F8827820F911D7C
:10024000A11DB11DBC01CD0142E0660F771F881FC3
:10025000991F4A95D1F708958F929F92AF92BF92BE
:10026000CF92DF92EF92FF926B017C010E94070117
:100270004B015C01C114D104E104F104F1F00E94CE
:100280000701DC01CB0188199909AA09BB09883E3D
:100290009340A105B10570F321E0C21AD108E1082D
:1002A000F10888EE880E83E0981EA11CB11CC114D1
:1002B000D104E104F10419F7DDCFFF90EF90DF9056
:1002C000CF90BF90AF909F908F9008950E940701AC
:1002D00078942091A3043091A404AB01421B530BEA
:1002E0009A017093A4046093A304293B5BE0350753
:1002F00018F01092A20408958091A204A901455813
:1003000053404331554050F48C3040F4E82FF0E036
:10031000EE0FFF1FEC5CFE4F318320838F5F8093D5
:10032000A20408952FB7F89460913E0570913F059F
:1003300080914005909141052FBF08951F920F9223
:100340000FB60F9211242F933F938F939F93AF93E8
:10035000BF9380913E0590913F05A0914005B091DB
:10036000410530913D0523E0230F2D3720F4019600
:10037000A11DB11D05C026E8230F0296A11DB11DC8
:1003800020933D0580933E0590933F05A093400543
:10039000B09341058091420590914305A091440599
:1003A000B09145050196A11DB11D80934205909322
:1003B0004305A0934405B0934505BF91AF919F912C
:1003C0008F913F912F910F900FBE0F901F90189516
:1003D0001F920F920FB60F9211242F933F934F93BA
:1003E0005F936F937F938F939F93AF93BF93EF939D
:1003F000FF93E0910201F09103010995FF91EF91C4
:10040000BF91AF919F918F917F916F915F914F912C
:100410003F912F910F900FBE0F901F9018951F9234
:100420000F920FB60F9211242F933F934F935F9328
:100430006F937F938F939F93AF93BF93EF93FF93AC
:10044000E0910001F09101010995FF91EF91BF91B9
:10045000AF919F918F917F916F915F914F913F915C
:100460002F910F900FBE0F901F9018958EBD00001A
:100470000DB407FEFDCF8EB508951F920F920FB6F3
:100480000F9211248F939F93EF93FF939091C60047
:10049000E091600181E08E0FF0E0EF59FE4F908314
:1004A00080936001FF91EF919F918F910F900FBE0C
:1004B0000F901F9018951F920F920FB60F92112454
:1004C0008F939F93EF93FF9380915E0190915F01D3
:1004D000981761F08F5F87FD80E0E82FF0E0E3542C
:1004E000FB4F90819093C60080935E0190915F01D5
:1004F000891305C08091C1008F7D8093C100FF9159
:10050000EF919F918F910F900FBE0F901F901895B4
:10051000FF920F931F93CF93DF9383E40E9492087F
:100520008091600590E0982F882720916105822BAB
:1005300095958795959587959093FA028093F90202
:1005400080915E0590E0982F882720915F05822B8F
:100550009195819591099595879595958795909316
:10056000FC028093FB028091620590E0982F88271F
:1005700020916305822B9195819591099595879599
:10058000959587959093FE028093FD0280910D03CF
:1005900090910E030097D9F1F0906B05A9EFB2E0AE
:1005A000E1EBF4E0CBEAD4E0811522E0920721F4FC
:1005B00010821182128213824D915D91052E000CE2
:1005C000660B770B0081118122813381400F511F0F
:1005D000621F731F419351936193719339E0759535
:1005E0006795579547953A95D1F749935993813037
:1005F000910511F423E0F22E24E0ED3BF207A1F681
:10060000F0926B05019790930E0380930D03CBEA54
:10061000D4E0E9EFF2E0A5EAB4E089919991208174
:100620003181281B390B4D915C911197CA01805281
:1006300093402817390734F0805C994F2817390701
:100640000CF4C901819391938D939D9382E0EF3FC8
:10065000F80719F7DF91CF911F910F91FF9008953F
:100660008093BC008FEF9091BC0097FD0EC081502D
:10067000D1F71092BC0080917102909172020196A4
:10068000909372028093710208950895CF93C82FBA
:1006900084EA0E943003C093BB0084E8CF910C949D
:1006A00030036150A0F02091B60230E0F901EC5423
:1006B000FD4F408151E0540F50832D583D4FF901BB
:1006C000E40FF11D2081FC012193CF01EACF0895B1
:1006D0002091B60230E0D901A15ABE4F9C919F5F94
:1006E00097FD90E0F901E354FB4FE90FF11D808382
:1006F0009C93F901EB54FD4F9081892780830895E5
:10070000E091B602F0E0EB54FD4F80810E94680357
:10071000E1ECF0E08081806280830895CF93DF93E5
:10072000D82FC62F84E20E9468038DE40E946803DC
:10073000D11102C08EE301C081E20E946803E09102
:10074000B602F0E0EB54FD4F10828C2F0E9468033C
:10075000E091B602F0E0ED54FD4F8081DF91CF9142
:100760000C94680360E080E00E948E030C94800388
:10077000EF92FF920F931F93CF93DF931F92CDB70A
:10078000DEB7182F062F80E099830E948E03E12E9A
:100790009981F92E100F1E1531F0F70181917F011B
:1007A0000E946803F8CF0F90DF91CF911F910F91B6
:1007B000FF90EF900C948003CF93DF93EC010E94A5
:1007C000EE19682F80E00E948E03FE018491882339
:1007D00031F0FE0184910E9468032196F6CFDF91EB
:1007E000CF910C9480031F920F920FB60F92112499
:1007F0002F938F939F938091A10481110DC08091BD
:10080000A00481115E9A8091A00427B590E0820F28
:10081000911D87BD81E00AC0813059F48091A00408
:1008200027B590E0820F911D87BD82E08093A104DF
:1008300017C0823051F45E9880919F0427B590E0F4
:10084000820F911D87BD83E0F1CF833049F4809101
:100850009F0427B590E0820F911D87BD1092A104DF
:100860009F918F912F910F900FBE0F901F90189511
:100870001F920F920FB60F9211242F938F939F9375
:1008800080919E0481110DC080919D0481115D9A1B
:1008900080919D0428B590E0820F911D88BD81E074
:1008A0000AC0813059F480919D0428B590E0820FF0
:1008B000911D88BD82E080939E0417C0823051F460
:1008C0005D9880919C0428B590E0820F911D88BDB1
:1008D00083E0F1CF833049F480919C0428B590E007
:1008E000820F911D88BD10929E049F918F912F9130
:1008F0000F900FBE0F901F901895E7EDF2E08081EA
:10090000918123E0959587952A95E1F79093890049
:10091000809388008281938133E0959587953A95FD
:10092000E1F78093A0048481958143E095958795B4
:100930004A95E1F780939D048091A004809580936F
:100940009F0480919D04809580939C04868197816B
:1009500053E0959587955A95E1F78093B4000895F3
:10096000E6E5F1E0108280E881838283838314824C
:1009700015821682178208959B01AC01AA27429F17
:10098000B0015302C00134039A0B700D811D9A1FF0
:1009900052039A0B700D811D9A1F112408956F92B6
:1009A0007F928F929F92AF92BF92CF92DF92EF92FF
:1009B000FF920F931F93CF93DF93EC018B016A801B
:1009C0007B80CE80DF80EA84FB84B301F8018081E4
:1009D00091810E94BC044B015C01B601F801828147
:1009E00093810E94BC04AB01BC01480D591D6A1DD6
:1009F0007B1D88859985AA85BB85841B950BA60BD5
:100A0000B70B88879987AA87BB87B701F8018081D0
:100A100091810E94BC044B015C01B601F801848104
:100A200095810E94BC04861A970AA80AB90A88818F
:100A30009981AA81BB81880E991EAA1EBB1E88823D
:100A40009982AA82BB82B701F801828193810E94B8
:100A5000BC046B017C01B301F801848195810E9483
:100A6000BC04DC01CB018C0D9D1DAE1DBF1D0C8196
:100A70001D812E813F81800F911FA21FB31F8C8388
:100A80009D83AE83BF83DF91CF911F910F91FF9024
:100A9000EF90DF90CF90BF90AF909F908F907F901E
:100AA0006F9008954F925F926F927F928F929F9274
:100AB000AF92BF92CF92DF92EF92FF92CF936B01F2
:100AC0007C0149015A010E94991B2B013C01B7018D
:100AD000A601F7FE07C044275527BA014C195D0946
:100AE0006E097F09D501C401B7FE07C08827992781
:100AF000DC0188199909AA09BB09C1E048175907FF
:100B00006A077B0744F0C0E0C501B4010E94991B4D
:100B1000A301920108C0C501B4010E94991B9B0169
:100B2000AC01C301B2010E94EF1A2B013C019B01F1
:100B3000AC010E94251C21ED31E944E650E40E94FD
:100B4000831A9B01AC01C301B2010E94EF1A23EC8E
:100B50003DEC4FEF54E40E94251C0E94611B9B0159
:100B6000CC2359F0B7FE12C0F7FE03C0285037401F
:100B70000DC09B01285F384F09C0F7FC03C024E873
:100B800033E002C02CE73CEF261B370BC901CF91A5
:100B9000FF90EF90DF90CF90BF90AF909F908F909D
:100BA0007F906F905F904F90089540E150E060E03B
:100BB00070E081E692E00E94F719E1E6F2E085E557
:100BC0009FE09E0F9E1719F02191820FFBCF90910D
:100BD0007002891741F01092610288E893E19093C6
:100BE0006302809362020895CF92DF92EF92FF92A8
:100BF0000F931F93CF93DF93082F142FC0E0C62EBF
:100C0000D12CE12CF12CC11791F0D0E0D01739F0A4
:100C10001D9AC701B6010E942C01DF5FF7CF6CE37C
:100C200070E080E090E00E942C01CF5FECCFDF917C
:100C3000CF911F910F91FF90EF90DF90CF9008958B
:100C400020910D0330910E0380910F03232B79F433
:100C5000982F9274B1F4826080930F0380910B03FC
:100C600090910C039093060380930503089581FDF2
:100C700008C041E06FEF82E00E94F40581E08093BC
:100C80006C0508952F923F924F925F926F927F92E0
:100C90008F929F92AF92BF92CF92DF92EF92FF928C
:100CA0000F931F93CF93DF93CDB7DEB72A970FB67D
:100CB000F894DEBF0FBECDBF109261024FE650E048
:100CC00060E170E081E193E00E94F719E1E1F3E077
:100CD00085E59EE69E0F9E1719F02191820FFBCFAE
:100CE00090917F038913B1C0E0903003F12C009103
:100CF0002F039DECC92E92E0D92E612C712C10E0AF
:100D000028EA822E24E0922EA12CB12C669C900120
:100D1000679C300D300D11242F503109E29EC00127
:100D2000E39E900DF29E900D11248A509A4F869D5D
:100D3000D001879DB00D969DB00D112498010E94A1
:100D4000A61CA50194010E941F1AF601219331935C
:100D50006F01FFEF6F1A7F0A25E062167104B1F68A
:100D60001091340304E6011BE4E61E9FC001112428
:100D70009C838B8320903503422C512C612C712C49
:100D8000E0907D03F0907E0380E897E06C01CE1840
:100D9000DF0887EB92E09A8389831A86312C80E101
:100DA000882E87E2982EA12CB12C9A85911B9987C9
:100DB000191614F0412F01C0402FE985EE02D00131
:100DC000112491010E94A61C6D837E838F839887D6
:100DD000242F30E0D9010E94731A9B01AC016D8170
:100DE0007E818F8198850E941F1ADA01C9018C5972
:100DF0009F4FAF4FBF4F84199509A609B709F985D1
:100E00002F2FFF0F330B289FA001299F500D389FD4
:100E1000500D11242B813C81240F351FD6010E94D7
:100E2000731AA50194010E94511A2E0D3F1DE981EC
:100E3000FA8121933193FA83E983FA85F65FFA8781
:100E4000FE3609F0B2CF81E00BC043E064E686E0F5
:100E50000E94F40583E080936B050E946F0780E099
:100E60002A960FB6F894DEBF0FBECDBFDF91CF91AB
:100E70001F910F91FF90EF90DF90CF90BF90AF90B8
:100E80009F908F907F906F905F904F903F902F90AA
:100E90000895CF93C82F10926102E1E1F3E095E548
:100EA0008EE68E0F8E1719F02191920FFBCF909343
:100EB0007F034FE650E060E170E081E193E00E9443
:100EC000071A0E944206C13029F441E064E18FE034
:100ED0000E94F40581E080936B05CF910895E1E1D4
:100EE000F3E081E280832EE1218397E19283838383
:100EF000248395839AE5958B2AE0268B24E6278B1D
:100F000024E426832DE22783108620E4218729E12B
:100F1000228738E133873FE034871586168632E230
:100F200037873EE0308B35E3318B228B838B83E533
:100F3000848B88E2808F138E148E158E968F81E4B9
:100F4000878F10A211A212A282E383A314A212A679
:100F500011A614A613A616A615A610AA17A612AABD
:100F600011AA16A215A210A617A213AA88E394E04C
:100F700090937E0380937D0380E00C9449078091D9
:100F8000C405882319F042981092C4050895CF92A1
:100F9000DF92EF92FF920F931F93CF93DF93E09135
:100FA0006F05E11117C0E1E0E0936F0590939C0598
:100FB00080939B0570939E0560939D055093A005BB
:100FC00040939F051093A2050093A1053093A405BB
:100FD0002093A305E0918D05E33030F5F0E0EE0FAE
:100FE000FF1FE556FA4FC081D181209709F44CC00C
:100FF000E090A305F090A4058091C405811165C01F
:101000000E94920100917C0510917D0520917E0542
:1010100030917F050E0D1F1D211D311D60177107B9
:101020008207930718F530C0C0907C05D0907D05ED
:10103000E0907E05F0907F050E9492012091A1052D
:101040003091A205DC01CB01821B930BA109B109F0
:10105000C816D906EA06FB06B8F410928D05109260
:101060006F051092640510926B0525C081E0809396
:10107000C405429A0E94920160937C0570937D059D
:1010800080937E0590937F059091740580918D05E6
:10109000913051F0E82FF0E0EE0FFF1FE556FA4FC8
:1010A00020813181232BA9F5833018F48F5F809341
:1010B0008D0510927405DF91CF911F910F91FF90D4
:1010C000EF90DF90CF900C94BF070E9492010091A7
:1010D0007C0510917D0520917E0530917F050C0FD8
:1010E0001D1F211D311D601771078207930760F2D4
:1010F0001092C40542980E94920160937C057093FF
:101100007D0580937E0590937F0581E08093740533
:10111000BBCFDF91CF911F910F91FF90EF90DF90A8
:10112000CF9008951F93CF93DF93C82F80ED0E9437
:101130004603C093BB0084E80E94300381ED0E9407
:101140004603CEE5D5E01C2F1B5F1C1739F084EC5D
:101150000E9430038091BB008993F7CF84E80E94FE
:1011600030038091BB0094E99093BC0080936305A9
:10117000DF91CF911F910895EF92FF921F93CF932C
:10118000DF931F92CDB7DEB7182F80ED69830E94E1
:1011900046038BEBE82EF12CF701108384E80E94C4
:1011A00030036981F701608384E80E94300384E999
:1011B0008093BC000F90DF91CF911F91FF90EF9033
:1011C00008959CB59F7D9CBD9CB5937F9CBD9CB5AF
:1011D0009C7F9CBD9DB591609DBD682F8091480509
:1011E0000E94BB0080915A0590915B058230910569
:1011F00038F0880F991F880F991F05970197F1F70D
:10120000089580E00C94E108CF930E94010981EEDB
:101210000E943602C82F81E00E94E1088C2FCF91F6
:1012200008951F93CF93DF931F92CDB7DEB78983C5
:101230000E94010989818F710E9436028FEF0E94FE
:101240003602182F81E00E94E108812F0F90DF9174
:10125000CF911F9108951F93CF93DF9300D0CDB707
:10126000DEB76A8389830E94010989818F71806258
:101270000E943602182F6A81862F0E94360281E072
:101280000E94E108812F0F900F90DF91CF911F9165
:101290000895EF92FF920F931F93CF93DF9300D0A7
:1012A0001F92CDB7DEB7162F4A837B8389830E94B6
:1012B000010989818F7180620E943602082FE12E18
:1012C0007B81F72E4A81140F1E1531F0F7018191B1
:1012D0007F010E943602F8CF81E00E94E108802F52
:1012E0000F900F900F90DF91CF911F910F91FF9072
:1012F000EF90089580E00E94110981FD0BC0682FD6
:10130000626080E00E942B0965E070E080E090E080
:101310000C942C0108950F931F93CF938C0186E0BA
:101320000E941109C82FC77D0230110531F4C06237
:101330008BE990E0A0E0B0E00DC00130110529F08C
:1013400085E590E0A0E0B0E005C0C86081E490E0F1
:10135000A0E0B0E08093560590935705A093580500
:10136000B09359056C2F86E00E942B0986E00E94FD
:10137000110991E08C1390E0892FCF911F910F916B
:10138000089590E0FC01E75FFE4F2491FC01EB50D3
:10139000FF4F8491882399F090E0880F991FFC01FA
:1013A000E551FF4FA591B491FC01EF51FF4F85919D
:1013B00094918FB7F894EC91E22BEC938FBF089542
:1013C000CF93DF93CDB7DEB7ED970FB6F894DEBFBE
:1013D0000FBECDBF789484B5826084BD84B5816032
:1013E00084BD85B5826085BD85B5816085BD8091F0
:1013F0006E00816080936E00109281008091810068
:10140000826080938100809181008160809381005F
:10141000809180008160809380008091B100846021
:101420008093B1008091B00081608093B000809182
:101430007A00846080937A0080917A008260809341
:101440007A0080917A00816080937A0080917A009E
:10145000806880937A001092C10082E08093C0007F
:101460001092C50080E18093C4008091C10088691A
:101470008093C1008DE00E94C10980E10E94C109F2
:101480000CE111E0E4E0FE2EF00ED8018D918D010B
:101490000E94C109F012F9CF80918000806880938A
:1014A000800014BC80916E00846080936E008091F7
:1014B0006E00826080936E008091B00080628093A5
:1014C000B00088EE93E09093D8028093D702909377
:1014D000DA028093D9029093DC028093DB0290932E
:1014E000DE028093DD020E947D046CE271E080E008
:1014F00090E00E942C010E94D505109261020E948A
:10150000420680916102882321F08150809361021C
:10151000F6CF0E94D5050E944206409161024F5FBE
:1015200068E282E00E94F40586E691E09093010172
:101530008093000180916900836080936900E89A3C
:101540000E94B0048091460590914705209148057E
:10155000309149058217930711F00E94C1098091CB
:101560004805909149052091460530914705281777
:10157000390711F00E94C1091FB7F89480918003C8
:10158000811124C0EFEFF0E08491E3E1F1E0949168
:10159000E82FF0E0EE0FFF1FE551FF4FA591B4914A
:1015A000EC91E92321F461E08AE00E94BB008AE02B
:1015B0000E94C1098CB580618CBD8CB580648CBDE6
:1015C0008DE00E94C1098BE00E94C10980918003D7
:1015D0008F5F809380031FBF8091460590914705E0
:1015E00020914805309149058217930719F060E072
:1015F0000E94BB0081E00E94E10865E070E080E0AD
:1016000090E00E942C016CE080E00E942B096FE5C5
:1016100084E00E942B0982E090E00E948B098823DD
:1016200019F081E080934C0586E00E94110980E06A
:1016300090E00E948B090E94010980E50E94360219
:1016400083E70E94360281E00E94E10860E08DE1BC
:101650000E942B0960E08CE10E942B0910924E053C
:1016600060E787E00E942B096CE485E00E942B096B
:101670000E94010982EE0E94360281E00E94E10888
:101680000E9404090E947A0980E00E941109682FD3
:101690006E7F80E00E942B09EFE6F0E0849140919C
:1016A00054056CE471E00E944909E9E6F0E0849198
:1016B00060914D050E942B0982E00E941109E5E727
:1016C000F0E0E49161E070E001C0660FEA95EAF7AE
:1016D000682B82E00E942B098DE10E941109682F7E
:1016E00064608DE10E942B098CE10E941109682F32
:1016F0006F638CE10E942B0981E080934E0560E0CE
:101700000E942B0982E090E00E948B0986E00E94F3
:101710001109887F682F616086E00E942B096CE6C2
:1017200085E00E942B090E947A090E947A0980E0D4
:101730000E941109682F616080E00E942B0960E718
:1017400087E00E942B0980914605909147052091E2
:101750004805309149058217930719F061E00E940E
:10176000BB0080914F05882341F0409154056FE400
:1017700075E08AE00E94490912C082E00E941109C6
:10178000E4E7F0E0E49121E030E001C0220FEA95C7
:10179000EAF72095622F682382E00E942B098DE1F1
:1017A0000E94110981FD0E94040915E00CE064E02B
:1017B000F62E449845981092B9000093B800F09224
:1017C000BC00109272021092710260E88BE60E94D7
:1017D000BC0862E370E080E090E00E942C0163E0CE
:1017E0008BE60E94BC0863E08AE10E94BC0868E1C5
:1017F0008BE10E94BC0862E087E30E94BC0860E1C4
:101800008CE10E94BC088091710290917202892B38
:1018100011F0115071F60E94070170936A046093F1
:10182000690480E092E090930E0380930D0388ECAE
:1018300090E0909382038093810380910F038068EE
:1018400080930F038AE790E055E0852E880E89AEDD
:101850008BE694E045E0942E980E98AE0E9492019B
:101860004B015C0187E10E94110980FD37C0109196
:101870004D05183088F108E080914E05811102C0B5
:10188000101B01C010E00E94010981E60E9436028F
:1018900036E5E32E31E0F32E015038F08FEF0E9451
:1018A0003602D7018D937D01F7CF112329F08FEFF9
:1018B0000E9436021150F9CF81E00E94E10860E7F2
:1018C00087E00E942B098092830390928403A09268
:1018D0008503B0928603C6CF012FCECF80918303BC
:1018E00090918403A0918503B0918603881A990A88
:1018F000AA0ABB0A39EE831633E09306A104B104A9
:1019000010F00E94B0042091560130E0A8EEB3E040
:101910000E94731AC12CD12C7601CA94A70196019A
:101920000E941F1ADA01C90188519C4FAF4FBF4F67
:101930009093D6038093D5032091570130E0A8EE11
:10194000B3E00E94731AA70196010E941F1ADA01E0
:10195000C90188519C4FAF4FBF4F9093D2038093E2
:10196000D1032091580130E0A8EEB3E00E94731A31
:10197000A70196010E941F1ADA01C90188519C4FE4
:10198000AF4FBF4F9093D0038093CF032091590165
:1019900030E0A8EEB3E00E94731AA70196010E94FE
:1019A0001F1ADA01C90188519C4FAF4FBF4F909366
:1019B000D4038093D30320915A0130E0A8EEB3E022
:1019C0000E94731AA70196010E941F1ADA01C90129
:1019D00088519C4FAF4FBF4F9093D8038093D7034C
:1019E00020915B0130E0A8EEB3E00E94731AA701DA
:1019F00096010E941F1ADA01C90188519C4FAF4F0E
:101A0000BF4F9093DA038093D90320915C0130E0BB
:101A1000A8EEB3E00E94731AA70196010E941F1A54
:101A2000DA01C90188519C4FAF4FBF4F9093DC033F
:101A30008093DB0320915D0130E0A8EEB3E00E94CB
:101A4000731AA70196010E941F1ADA01C901885171
:101A50009C4FAF4FBF4F9093DE038093DD03809187
:101A60009804909199042091960430919704FC0178
:101A7000E21BF30B1E161F060CF0DEC1805E914BBD
:101A800090939704809396048091E7038F5F83304F
:101A900019F08093E70302C01092E703A090E703D8
:101AA000D0901F040FEC13E0B7E88B2EB3E09B2E11
:101AB0004EE754E060E274E0B12CAA0CBB1CFA01C2
:101AC000C12CD801ED90FD908D01D4012D913C9158
:101AD000119712968D919C911397820F931F0296E6
:101AE00014962D913C911597820F931F8E0D9F1D7B
:101AF0009695879596958795208131812350310958
:101B00008217930728F49C012E5F3F4F3183208377
:101B1000208131812D5F3F4F2817390718F4029734
:101B200091838083C4018A0D9B1DDC01ED92FC92A0
:101B3000B7E0BC1560F0DD2051F0DA94DB018D9147
:101B40009C918538B3E09B0714F091838083C39404
:101B500026E0820E911C32966E5F7F4F3CE0C312EE
:101B6000B0CFD0921F0410E0812F90E0959587951B
:101B700095958795182FDA012D913D91AD012D3462
:101B8000B4E03B0724F010682C3637400CF41064A6
:101B9000F4E046385F0741F780917D04181308C0D0
:101BA00080917C048A3F30F48F5F80937C0402C074
:101BB00010927C0410937D0480918404909185049C
:101BC0008D34944074F51092790410927804109238
:101BD0007B0410927A04109274041092750410928F
:101BE000760410927704109271041092700410928F
:101BF00073041092720480913A0390913B03892BF5
:101C000081F090916B0480910F03992329F080FF5C
:101C100003C00E94200605C081FF03C08D7F809312
:101C20000F0380917C04843179F480910F0381FF4C
:101C300012C020913A0330913B03232B29F41D3726
:101C400019F48D7F80930F03A6E8B4E080E090E064
:101C5000E0E0F0E051C0173539F480E092E0909375
:101C60000E0380930D0309C01B3639F40E9407014F
:101C700070936A0460936904E7CF80913A0390916E
:101C80003B03892B29F41E3719F40E942006DCCF70
:101C9000173939F480E092E09093680480936704E8
:101CA000D3CF1B3B31F480913803909139030296D6
:101CB00007C0173B59F4809138039091390302977C
:101CC00090933903809338030C94BC191E3B31F474
:101CD0008091360390913703029608C01D3B09F0AE
:101CE000B3CF8091360390913703029790933703D7
:101CF000809336030C94BC196D917D9141E050E0C6
:101D0000653A36E0730714F440E050E09C012E5F22
:101D10003F4F7A0102C0EE0CFF1C2A95E2F701E06A
:101D200010E0643145E0740714F000E010E0A80111
:101D3000082E02C0440F551F0A94E2F74E295F296E
:101D40006551754021E030E06F38714010F020E0BF
:101D500030E0BC016F5F7F4F02C0220F331F6A95D6
:101D6000E2F7422B532BE42BF52B03968C30910595
:101D700019F64AE353E06BE674E0DA018D919D9128
:101D8000AD018E239F2321E0892B09F420E0DB01A4
:101D90002D93BD0188AC8A12F0CF80916C04811123
:101DA0000C94C3198091650490916604C39714F054
:101DB0000C94C31980910F03877F80930F03809148
:101DC0006D04882389F080910F03877F80930F0330
:101DD00084FD0FC01092710410927004109273046D
:101DE00010927204806103C080910F038F7E8093F4
:101DF0000F0380916B04811105C080910F038160F6
:101E000080930F0380916E04882381F080910F03EB
:101E100085FD22C0806280930F0380910B03909117
:101E20000C03909306038093050316C080910F0363
:101E30008F7D80930F0310C080916404823051F035
:101E400028F4882339F0813029F006C0833011F05E
:101E5000843011F4109264040E9407016093980486
:101E60007093990480939A0490939B042091690441
:101E700030916A045B01A21AB30AB0926304A09283
:101E8000620410EFA1161AE0B10630F370936A04F1
:101E9000609369048BE30E94920880915E0590E054
:101EA000982F882720915F05822B23E095958795B1
:101EB0002A95E1F7909300038093FF0280916005DB
:101EC00090E0982F882720916105822B43E095951B
:101ED00087954A95E1F790930203809301038091DF
:101EE000620590E0982F882720916305822B63E09C
:101EF000959587956A95E1F7909304038093030382
:101F00008091670490916804009709F46AC0019772
:101F10009093680480936704E8EEF3E020E030E0FB
:101F20008F3F41E0940721F41082118212821382C4
:101F3000D901A951BD4F58964D915C915997052EE5
:101F4000000C660B770BC080D180E280F3804C0DD3
:101F50005D1D6E1D7F1D4193519361937193D90156
:101F6000AF59BD4F19E075956795579547951A95E7
:101F7000D1F712965C934E9311972E5F3F4F263008
:101F8000310571F6892B69F580916602909167029F
:101F900092509093670280936602109237031092DA
:101FA00036031092390310923803E1E6F2E085E53A
:101FB0009FE09E0F9E1719F02191820FFBCF809317
:101FC000700240E150E060E070E081E692E00E9443
:101FD000071A41E064E18FE00E94F40581E08093FC
:101FE0006B058091FF029091000320916202309175
:101FF0006302821B930B909300038093FF028091F6
:102000000103909102032091640230916502821BCA
:10201000930B9093020380930103809103039091AB
:1020200004032091660230916702821B930B909308
:102030000403809303030E9407016B017C018091DC
:10204000040490910504B601681B790B80E090E0D0
:102050000E94971B29E134E442E959E30E94251CC0
:102060002B013C01D0920504C092040488EF93E058
:102070009C8F8B8FA7EEB2E0B8A3AF8FFE01319695
:102080001F018D01C12CD12C76011F8AAB8DBC8D17
:102090008D909D90AD90BC90D501C40174E0B69533
:1020A000A795979587957A95D1F7F80191838083C5
:1020B000408D518D481B590B052E000C660B770B7C
:1020C000480D591D6A1D7B1DEB8DFC8D419351936D
:1020D00061937193FC8FEB8FBC010E94BC04C60E10
:1020E000D71EE81EF91ED80152966D917C91539728
:1020F000072E000C880B990B0E94991BA3019201DB
:102100000E94251C0E94611BF101619371931F01C4
:10211000FF89FF5FFF8B0E5F1F4FF33009F0B6CFD3
:10212000BE016F5F7F4F80E191E00E94CF04BE014E
:102130006F5F7F4F84E091E00E94CF04CD2CDE2CB6
:10214000EF2CFF24E7FCFA9417E6C11A13E0D10A3A
:1021500060E1E62E61E0F62E07EE12E0412C512CF4
:10216000320122E3C21621E0D206F8F4D8018D91A3
:102170009C91F70122813381821B930B092E000C65
:10218000AA0BBB0B46E0880F991FAA1FBB1F4A95DD
:10219000D1F74081518162817381840F951FA61F01
:1021A000B71F80839183A283B383D70112966D9169
:1021B0007C911397F801819191918F010E94BC0449
:1021C000460E571E681E791EF4E0EF0EF11C2CE13E
:1021D000E21621E0F20629F620911A0130911B0146
:1021E00080910F03213D314014F0806801C08F774A
:1021F00080930F038091120190911301BC010E9402
:10220000BC046B017C0180911A0190911B01BC01FF
:102210000E94BC0446015701860E971EA81EB91ED7
:102220008F8A988EA98EBA8E80911601909117018F
:10223000BC010E94BC04680D791D8A1D9B1D0E9473
:10224000991B8B019C013595279517950795A9EF4B
:10225000CA2EDD24DA94AFE1EA2EAFE5FA2EC01AD9
:10226000D10AE20AF30A27E336E344E35FE30E947C
:10227000251CA70196010E94251CA70196010E941A
:10228000251C9B01AC0166EF78E487ED9FE30E947B
:10229000821A9B01AC01C701B6010E94251C6B8FFD
:1022A0007C8F8D8F9E8F00911201109113012091D0
:1022B0001A0130911B01032E000C440B550BB80181
:1022C000012E000C880B990B0E9452059093080375
:1022D000809307036F89788D898D9A8D0E94991B51
:1022E0004B015C01DC01CB01B595A79597958795CE
:1022F00039EFC32EDD24DA943FE1E32E3FE5F32EE0
:10230000C81AD90AEA0AFB0A27E336E344E35FE383
:10231000C501B4010E94251CA70196010E94251C3D
:10232000A70196010E94251C9B01AC0166EF78E491
:1023300087ED9FE30E94821A9B01AC01C701B601A1
:102340000E94251CA50194010E94251C0E94611B6E
:102350009B01AC018091160190911701BC01990F6E
:10236000880B990B0E94520590930A0380930903EE
:10237000A0910A01B0910B012F89388D498D5A8D9A
:102380000E94491A6B017C01B8018091060190916D
:1023900007010E94BC044B015C0160911A0170911D
:1023A0001B0180910E0190910F010E94BC04A501B8
:1023B0009401260F371F481F591FA0911601B09195
:1023C00017010E94491AA7019601261B370B480BDB
:1023D000590BCA01B9010E94991B2B8D3C8D4D8D63
:1023E0005E8D0E94251C0E94611B9B01AC016091C7
:1023F00012017091130180910E0190910F012AAF8B
:102400003BAF4CAF5DAF0E94BC046B017C0160919F
:102410001A0170911B0180910601909107010E94A1
:10242000BC0446015701861A970AA80AB90AC501D1
:10243000B4012AAD3BAD4CAD5DAD0E9452056AE0E2
:1024400070E00E94921C70930C0360930B03C30115
:10245000B2010E94991B2B8D3C8D4D8D5E8D0E948B
:10246000251C0E94611B20910F0321FD14C0409187
:10247000F4035091F5039A01E3E035952795EA9529
:10248000E1F75A01A21AB30A9501260F371F3093BC
:10249000F5032093F4032091F4033091F50343E016
:1024A000359527954A95E1F7AB01421B530B5093A5
:1024B000F7034093F6030E9488028091F9029091FD
:1024C000FA0290933F0480933E048091FB02909126
:1024D000FC0290934104809340048091FD0290910E
:1024E000FE0290934304809342040E9407012B0153
:1024F00020918404309185042D3D15E03107A4F02E
:1025000080913303203D47E0340754F4B9016C5DFA
:102510007540869FA001879F500D1124852F8695B9
:1025200090E8992E981A02C090E8992E20903103D5
:10253000312C0EE7602E04E0702E8AE594E098AB13
:102540008FA7A1E1B3E0BAA3A9A35D01FC0140E01C
:1025500050E080E8882ED3016D917D913D016D3D65
:10256000B5E07B072CF0603D17E0710764F008C010
:102570008CED95E0861B970B843FA1E09A0734F021
:1025800084EF91E003C0CB018C5D95404230510552
:1025900009F469C08C01000F012F001F110B119568
:1025A000D801AA0FBB1FA353BD4FED90FC90F88E2E
:1025B000EF8A7801EE0CFF1CD701A153BD4FED90BF
:1025C000FC90AF89B88DEA1AFB0A1695102F0027E8
:1025D000179507956C01C01AD10AEC9C8001ED9CFF
:1025E000100DFC9C100D1124000F012F001F110B6A
:1025F00011950A0F1B1F11830083829DD001839DBB
:10260000B00D929DB00D11248B2F8695B82DB81B5F
:10261000B99DC0011124880F892F881F990B9195AE
:10262000D501FC90F89E8001F99E100D1124000F39
:10263000012F001F110B1195DA01A85ABB4F0C9303
:10264000D50112961C91189FD001199FB00D11242D
:10265000CD01880F892F881F990B9195DA01A65B10
:10266000BB4F8C9302C0918380836C3D75403CF4DA
:1026700080819181919581959109918380834F5FAC
:102680005F4F329613E0A10EB11C4330510509F0A3
:1026900062CF2C3444E034073CF0213D57E035074D
:1026A0002CF020ED37E002C02CE434E02C54344010
:1026B000AFEFB9E00E94731A24E833E040E050E045
:1026C0000E94511A832F9927FC01EE0FFF1FE95436
:1026D000FD4F60817181FC01EE0FFF1FE754FD4F3C
:1026E0000190F081E02DE61BF70B982F88278901D8
:1026F000081B190BE09FC001E19F900DF09F900D0A
:102700001124892F9927680F791F709361046093B2
:102710006004809137048F5F8093370480916F0449
:10272000882321F081E08093670502C0109267053D
:10273000809171029091720201968636910520F087
:1027400081E080936D0502C010926D0581E0809359
:10275000060480916505813019F400ED17E043C04F
:10276000823021F080916C05813049F402E310E061
:1027700022E330E048EC50E068EC70E027C0809144
:102780006405813049F400E010E022E330E040E0ED
:1027900050E060E070E01AC0823039F400E010E0F0
:1027A00022E330E040E050E00FC0833019F400E055
:1027B00010E006C080916705813059F402E310E013
:1027C00022E330E042E350E062E370E082E390E035
:1027D00035C080916905813051F380916B0581305E
:1027E00049F408EC10E022E330E040E050E060E023
:1027F00070E013C0823039F408EC10E022E330E0DE
:1028000040E050E008C0833059F408EC10E022E3C7
:1028100030E048EC50E068EC70E088EC90E00EC0EE
:1028200080916F05813069F400E010E020E030E035
:1028300040E050E060E070E080E090E00E94C70778
:1028400002C00E94BF0710926C05809167049091AE
:102850006804892B31F480910D0390910E03892B2C
:1028600011F01D9A08C080910F0382FD2D98809170
:102870000F0381FD2D9A4091980450919904609125
:102880009A0470919B048091330490913404A09138
:102890003504B091360484179507A607B70700F5ED
:1028A00080910F0387FD19C08B7F80930F031D9AC2
:1028B0008091980490919904A0919A04B0919B04FE
:1028C00080569947AE4FBF4F8093330490933404A2
:1028D000A0933504B093360403C0846080930F0343
:1028E0000E9407011092B602909160018091070446
:1028F000981B00E012E0F2E37F2EA0E8EA2EA7E0AA
:10290000FA2EB8EECB2EB3E0DB2EAA24A394B12C82
:1029100027EE622E8FEF890F992309F4C9C1909198
:102920005F0120915E01921B9F779F3408F0C0C128
:1029300090910704E92FF0E0EF59FE4F208130918C
:102940006001391719F09F5F90930704909132044A
:10295000911104C091E0243259F4A6C1913019F4C8
:102960002D3431F49BC1923029F42C3309F498C1F1
:1029700090E09AC1933069F4213408F097C1209314
:1029800031042093B502109230041092B40294E006
:102990008BC1943049F42093B3029091B50229275A
:1029A0002093B50295E080C1953009F07DC1E0919A
:1029B0003004409131043091B502E41760F43227BD
:1029C0003093B50231E03E0F30933004F0E0ED5823
:1029D000FD4F208369C1321365C18091B3028537F1
:1029E00009F41EC108F058C08D3609F40DC130F548
:1029F000873609F4EDC0B0F4853609F4B6C008F0A6
:102A0000E3C0843609F043C1698283E08A831B8274
:102A100080E090E0A0E0B0E78C839D83AE83BF832D
:102A200067E0CFC0893609F4EBC008F4DFC08C360C
:102A300009F02DC166E087E093E026C1813709F4F3
:102A4000F2C048F48F3609F4E3C008F0E5C067E04F
:102A500080E194E019C1833709F4F9C008F0E7C0B8
:102A60001A82198280917D0390917E039C838B83CF
:102A7000FE82ED82D886CF821A8619861C861B8636
:102A80001D861E861F86188A1A8A198A1B8A1C8A26
:102A90001D8A1E8A66E195C08F3C09F452C0D8F4A5
:102AA0008A3CD9F188F4883709F496C0883C69F1EA
:102AB000873709F0ECC065E080E00E948E03EAE70A
:102AC0008E2EE0E09E2EB8C08C3CA9F160F18D3CCA
:102AD00009F4C8C0DCC08F3E09F48CC048F4833DC3
:102AE000F1F1843D09F47CC0803D09F0D0C0B3C051
:102AF0008A3F09F4C0C08E3F09F4C3C0803F09F08B
:102B0000C6C064E086E393E0BFC060E180E294E089
:102B10000E94510370921F04C5C00E94B2036EE16F
:102B200081E193E005C00E94B2036AE08AE393E08A
:102B30000E945103B7C00E94B20367E08FE293E0A6
:102B4000F7CF0E94B20366E1CE0101960E945103C5
:102B50008B819C8190937E0380937D03A3C00E9410
:102B6000B20362E085E093E0E3CF8091620490914C
:102B700063049A83898380917102909172029C838D
:102B80008B83BE82AD8220910F0323FF05C082E0BC
:102B900090E0A0E0B0E003C080E090E0DC0124FD24
:102BA000846025FD886030916F043111806121FDC2
:102BB00081608F839887A987BA87809161028B870C
:102BC0006BE0CE01019660C062E187EE92E05CC0EE
:102BD00060E184E291E058C068E385E493E054C08A
:102BE0000E94B20368E385E493E0A2CF60E187ED41
:102BF00092E04AC00E94B20364E086E393E098CF7B
:102C000068E18EE794E040C066E089E194E03CC072
:102C100067E08FE293E038C06EE181E193E034C079
:102C20008DE990E006C06AE08AE393E02DC08FE76B
:102C300090E00E94DC0336C0F40184910E94680396
:102C4000FFEF8F1A9F0A29AD2811F6CF24C068E044
:102C50008CE191E019C080910F0381FD0FC00E94AB
:102C60006F070CC080910F0381FD08C010936804AA
:102C70000093670403C080E00E9449070E94B203EA
:102C800011C068E088E094E00E94B8030BC060E0E7
:102C900081E00E948E030E94800304C092E004C081
:102CA00093E002C090E080E090933204982F32CEFF
:102CB0000E940701641975096A387240CCF30E94BA
:102CC0008802EEE3F4E06DEEE62E62E0F62E08E315
:102CD00014E073E0C72ED12CD7011C962D913C91A6
:102CE0001D9780819181280F391F21933193D8013D
:102CF0008D919C91820F931FB6010E94921CD70167
:102D00006D937D937D0135952795D8012D933D9346
:102D10008D01B4E0E434FB07F9F620915E043091B4
:102D20005F04A9014B5B5F4F80900F038F8A8091F6
:102D30000B0390910C034B38510570F585FE2CC0A8
:102D40004091050350910603841B950B8D341FEFB2
:102D5000910714F488599E4F843B910514F08856CE
:102D600091408F8887FC04C0409110034370C1F0EC
:102D700060912903689FA001699F500D1124CA0129
:102D800045E0959587954A95E1F7281B390B3093D7
:102D90005F0420935E0404C09093060380930503B0
:102DA0009F8894FE22C0C0905C04D0905D04D7FE42
:102DB00003C0D194C194D10880915A0490915B04CE
:102DC00097FF03C09195819591099601C816D90680
:102DD0000CF49C01213012E0310714F020E032E0C5
:102DE0006901330FEE08FF0803C0C12CD12C760116
:102DF00008E714E028E534E03EAB2DAB44E554E0B1
:102E00005AA749A780E594E098A78FA3ACE4B4E063
:102E1000BEA3ADA3EAE4F4E0FCABEBAB24E434E006
:102E20003AAB29AB40E754E05C8F4B8F212C312C1F
:102E30005F8958715FABAFA5B8A9AD90BD90B8AB35
:102E4000AFA7AA0CBB1CEF8DF8A126813781D80152
:102E50004D915C91C90137FF04C088279927821BD7
:102E6000930B81389240ACF4C501821B930B840F05
:102E7000951F8138EEE39E0714F080E89EE38038CA
:102E8000F1EC9F0714F480E891ECD8018D939C93AA
:102E900003C0F80111821082D8018D919C91880F96
:102EA000892F881F990BE9A1FAA12181289FD001C0
:102EB000299FB00D11244D0186E0959487948A9541
:102EC000E1F79CA28BA2608170E0C5010E94BC0466
:102ED0002B013C0196E075946794579447949A951A
:102EE000D1F742012FA9222309F499C0F101EF5A29
:102EF000FE4F808191818A0D9B1D853F31E09307B4
:102F000014F084EF91E08C304EEF940714F48CE0D1
:102F10009EEFF101E95FFC4F208131815C01A21A33
:102F2000B30AF101EF5EFC4F85A196A18A0D9B1DAE
:102F3000AB8DBC8D8D909C90880E991EB1E18B1647
:102F4000B7E29B0624F0A0E18A2EA7E29A2EE0EFDA
:102F50008E16E8ED9E0624F4F0EF8F2EF8ED9F2EEE
:102F6000AB8DBC8D8D929C926091260370E00E9487
:102F7000BC04AB01BC01E7E0759567955795479593
:102F8000EA95D1F780912803B5E08B9FC001112409
:102F9000AA24BB24A81AB90A4A155B052CF05A01C9
:102FA000841795070CF45C016091270370E0C4015D
:102FB0000E94BC049B01AC01FCE0559547953795F8
:102FC0002795FA95D1F72BA73CA74DA75EA7ABA1F4
:102FD000BCA1A21BB30BA70196010E94491ADC01F8
:102FE000CB0169E0B595A795979587956A95D1F737
:102FF0008BA49CA4880E991E9CA28BA2D201AA1914
:10300000BB090E94491ADC01CB0179E0B595A7956F
:10301000979587957A95D1F74501880E991EADA9A8
:10302000BEA96D91BEABADAB70E0EF8DF8A186810E
:1030300097810E94BC04092C000CAA08BB08DC0183
:10304000CB0176E0B595A795979587957A95D1F7B9
:10305000881A990AAA0ABB0AAF8DB8A116968D9153
:103060009C911797E9A5FAA520813181AC01421BFB
:10307000530B9A0181939193FAA7E9A7AFA1B8A541
:103080004D915C911197EDA1FEA180819181840FFA
:10309000951F41935193FEA3EDA32D933D93B8A7A4
:1030A000AFA3ABA9BCA96D91BCABABAB70E0820F79
:1030B000931F0E94BC04ABA1BCA1A80DB91DAB011C
:1030C000BC01E5E07595679557954795EA95D1F769
:1030D000A41BB50BE9A9FAA9A193B193FAABE9AB8B
:1030E000F2E02F0E311C2F8D38A12E5F3F4F38A3F9
:1030F0002F8F0E5F1F4F49A15AA14D5F5F4F5AA3FB
:1031000049A38B8D9C8D02969C8F8B8F94E0291602
:10311000310409F090CE6091320370E0615F7F4F1F
:10312000660F771F80915E0490915F040E94BC043B
:103130004B015C0165E0B594A794979487946A95D8
:10314000D1F78091F1029091F2027401E81AF90A24
:103150006091180370E0C7010E94BC0440907404A1
:10316000509075046090760470907704940197FEF7
:1031700004C022273327281939092333310524F5C0
:10318000DC01CB01840D951DA61DB71D8F3FEFEF10
:103190009E07AE07EFE0BE0724F08EEF9FEFAFEF84
:1031A000BFE082309105A105F0EFBF0724F482E073
:1031B00090E0A0E0B0EF8093740490937504A09326
:1031C0007604B093770408C01092740410927504CA
:1031D00010927604109277046091170370E0C70193
:1031E0000E94BC046B017C0146E0F594E794D794FF
:1031F000C7944A95D1F7209119038CE291E0821B84
:10320000910944275527481B590BC416D5062CF0A5
:10321000A6018C159D050CF4AC018091740490916D
:103220007504A0917604B09177043DE0B595A7951B
:10323000979587953A95D1F786301FEF910734F02F
:103240008B3F91052CF08AEF90E002C086E09FEF63
:103250009A01280F391F3093490420934804409164
:103260006004509161048091440490914504BA0136
:10327000681B790BA0914604B0914704FB01EA0F4B
:10328000FB1FE21BF30BF093D802E093D7026A1BFB
:103290007B0B620F731F7093DA026093D902480FA1
:1032A000591FCA018A0F9B1F820F931F9093DC0244
:1032B0008093DB024A1B5B0B421B530B5093DE02D5
:1032C0004093DD02861797070CF4CB01841795070E
:1032D0000CF4CA018E179F070CF4CF0140917D03B7
:1032E00050917E03A0918404B0918504E7EDF2E053
:1032F00024E0F22E60E877E05B01A81AB90A1F8982
:103300001074E12E1F891270D12E08EE13E081385F
:1033100027E0920734F0208131812A0D3B1D318353
:10332000208320813181241735073CF0213867E064
:10333000360724F020E837E001C09A01318320836A
:10334000AC3424E0B20724F4E11002C0518340837E
:10335000D11002C011830083FA943296F110D7CFB6
:103360000E947D0480E090E0892B11F40C942E0CD7
:103370000E9400000C94280C81E00E9449071092E2
:103380007C040C94240E80910F0383FF02C00C94E4
:10339000DF0E109271041092700410927304109258
:1033A000720488600C94DD0EE6E4F5E087E090E0BE
:1033B0009183808388E090E093838283168280E209
:1033C0008783108685E0868785E090E0A0E0B0E006
:1033D000848B958BA68BB78B11860895FC01059085
:1033E0000020E9F7809590958E0F9F1F0895DC01CE
:1033F000CB01FC01F999FECF06C0F2BDE1BDF89A00
:10340000319600B40D9241505040B8F70895DC0158
:10341000CB0103C02D910E94121A41505040D0F7A9
:103420000895262FF999FECF1FBA92BD81BD20BD08
:103430000FB6F894FA9AF99A0FBE01960895052EE0
:1034400097FB1EF400940E94361A57FD07D00E9485
:10345000511A07FC03D04EF40C94361A509540953F
:10346000309521953F4F4F4F5F4F08959095809530
:10347000709561957F4F8F4F9F4F08950E94731AEB
:10348000A59F900DB49F900DA49F800D911D1124B8
:103490000895B7FF0C943E1A0E943E1A821B930BAC
:1034A0000895A1E21A2EAA1BBB1BFD010DC0AA1F85
:1034B000BB1FEE1FFF1FA217B307E407F50720F09D
:1034C000A21BB30BE40BF50B661F771F881F991F18
:1034D0001A9469F760957095809590959B01AC0161
:1034E000BD01CF010895A29FB001B39FC001A39F6A
:1034F000700D811D1124911DB29F700D811D11242D
:10350000911D08955058BB27AA270E949A1A0C941F
:10351000EB1B0E94DD1B38F00E94E41B20F039F405
:103520009F3F19F426F40C94DA1B0EF4E095E7FBA8
:103530000C94D41BE92F0E94FC1B58F3BA176207A6
:1035400073078407950720F079F4A6F50C941E1CE8
:103550000EF4E0950B2EBA2FA02D0B01B9019001AE
:103560000C01CA01A0011124FF27591B99F0593FF2
:1035700050F4503E68F11A16F040A22F232F342F3A
:103580004427585FF3CF469537952795A795F04088
:103590005395C9F77EF41F16BA0B620B730B840B9D
:1035A000BAF09150A1F0FF0FBB1F661F771F881F55
:1035B000C2F70EC0BA0F621F731F841F48F48795AD
:1035C00077956795B795F7959E3F08F0B0CF93959F
:1035D000880F08F09927EE0F9795879508950E9418
:1035E000031B0C94EB1B0E94E41B58F00E94DD1B94
:1035F00040F029F45F3F29F00C94D41B51110C9436
:103600001F1C0C94DA1B0E94FC1B68F39923B1F376
:10361000552391F3951B550BBB27AA2762177307F8
:10362000840738F09F5F5F4F220F331F441FAA1F8C
:10363000A9F335D00E2E3AF0E0E832D09150504048
:10364000E695001CCAF72BD0FE2F29D0660F771FF6
:10365000881FBB1F261737074807AB07B0E809F0DC
:10366000BB0B802DBF01FF2793585F4F3AF09E3F61
:10367000510578F00C94D41B0C941F1C5F3FE4F3AD
:10368000983ED4F3869577956795B795F7959F5FA4
:10369000C9F7880F911D9695879597F90895E1E0F0
:1036A000660F771F881FBB1F621773078407BA074F
:1036B00020F0621B730B840BBA0BEE1F88F7E095AA
:1036C00008950E94681B6894B1110C941F1C089502
:1036D0000E94041C88F09F5798F0B92F9927B75182
:1036E000B0F0E1F0660F771F881F991F1AF0BA95A6
:1036F000C9F714C0B13091F00E941E1CB1E00895CA
:103700000C941E1C672F782F8827B85F39F0B93FBB
:10371000CCF3869577956795B395D9F73EF4909558
:103720008095709561957F4F8F4F9F4F0895E894D6
:1037300009C097FB3EF490958095709561957F4FF9
:103740008F4F9F4F9923A9F0F92F96E9BB279395A7
:10375000F695879577956795B795F111F8CFFAF4B7
:10376000BB0F11F460FF1BC06F5F7F4F8F4F9F4FE8
:1037700016C0882311F096E911C0772321F09EE846
:10378000872F762F05C0662371F096E8862F70E0AC
:1037900060E02AF09A95660F771F881FDAF7880F86
:1037A0009695879597F9089597F99F6780E870E057
:1037B00060E008959FEF80EC089500240A941616A7
:1037C000170618060906089500240A94121613060F
:1037D000140605060895092E0394000C11F488239D
:1037E00052F0BB0F40F4BF2B11F460FF04C06F5FB9
:1037F0007F4F8F4F9F4F089557FD9058440F551F8F
:1038000059F05F3F71F04795880F97FB991F61F062
:103810009F3F79F087950895121613061406551FD9
:10382000F2CF4695F1DF08C0161617061806991F45
:10383000F1CF86957105610508940895E894BB273A
:1038400066277727CB0197F908950E94381C0C94BE
:10385000EB1B0E94DD1B38F00E94E41B20F0952337
:1038600011F00C94D41B0C94DA1B11240C941F1C23
:103870000E94FC1B70F3959FC1F3950F50E0551FFC
:10388000629FF001729FBB27F00DB11D639FAA27B5
:10389000F00DB11DAA1F649F6627B00DA11D661F04
:1038A000829F2227B00DA11D621F739FB00DA11D25
:1038B000621F839FA00D611D221F749F3327A00DDF
:1038C000611D231F849F600D211D822F762F6A2F7B
:1038D00011249F5750409AF0F1F088234AF0EE0FE0
:1038E000FF1FBB1F661F771F881F91505040A9F70D
:1038F0009E3F510580F00C94D41B0C941F1C5F3F1D
:10390000E4F3983ED4F3869577956795B795F79548
:10391000E7959F5FC1F7FE2B880F911D96958795C0
:1039200097F9089597FB072E16F4009407D077FDBA
:1039300009D00E94AD1C07FC05D03EF490958195FE
:103940009F4F0895709561957F4F08950E94731A57
:10395000B7FF0895821B930B0895AA1BBB1B51E16F
:1039600007C0AA1FBB1FA617B70710F0A61BB70BEF
:10397000881F991F5A95A9F780959095BC01CD0194
:103980000895EE0FFF1F0590F491E02D0994F8942F
:02399000FFCF67
:10399200BA00BA00000000000000000100000000B0
:1039A20000000000000000000000000209060503FC
:1039B200100C0A0BDC05DC05DC05DC05DC05DC058E
:1039C200DC05E803DE05DE05DE05DE05DE05DE05D7
:1039D200DE05DE05DE05DE05DE05DE054672454155
:0639E2004B000000000094
:00000001FF
