:100000000C9490000C940F020C94E8010C94B8002E
:100010000C94B8000C94B8000C94B8000C94B80080
:100020000C94B8000C94B8000C94B8000C94B80070
:100030000C94B8000C94B8000C94F3030C9438049E
:100040000C949E010C94B8000C943D020C945B023D
:100050000C94B8000C94B8000C94B8000C94B80040
:100060000C94B8000C94B8001112131415160A0B56
:100070000C0D0E0F000102030405000102050D41E5
:10008000524D3B414E474C453B484F52495A4F4ECB
:100090003B4D41473B4245455045523B00524F4C3A
:1000A0004C3B50495443483B5941573B414C543BCE
:1000B000506F733B506F73523B4E6176523B4C45D1
:1000C00056454C3B4D41473B56454C3B00000000DC
:1000D0000800020100000304070000000000000007
:1000E0000000000000250028002B00000000002474
:1000F0000027002A00040404040404040402020289
:100100000202020303030303030102040810204058
:100110008001020408102001020408102000761A51
:1001200011241FBECFEFD8E0DEBFCDBF11E0A0E0AD
:10013000B1E0EEEEFAE302C005900D92A635B107EC
:10014000D9F725E0A6E5B1E001C01D92AF3EB207A8
:10015000E1F710E0C0E9D0E004C02197FE010E9461
:100160006F1DCF38D107C9F70E94F2090C94751D95
:100170000C940000089590E0FC01E353FF4F34918C
:10018000FC01E75FFE4F2491FC01EB50FF4FE4912F
:10019000EE2309F43BC0332339F1333091F038F4C6
:1001A0003130A9F0323001F584B58F7D12C037307F
:1001B00091F03830A1F03430B9F4809180008F7D17
:1001C00003C0809180008F77809380000DC084B53C
:1001D0008F7784BD09C08091B0008F7703C0809174
:1001E000B0008F7D8093B000F0E0EE0FFF1FEF5165
:1001F000FF4FA591B4918FB7F894EC91611103C0B2
:1002000020952E2301C02E2B2C938FBF08953FB72E
:10021000F8948091690590916A05A0916B05B09161
:100220006C0526B5A89B05C02F3F19F00196A11DAE
:10023000B11D3FBFBA2FA92F982F8827820F911D7C
:10024000A11DB11DBC01CD0142E0660F771F881FC3
:10025000991F4A95D1F708958F929F92AF92BF92BE
:10026000CF92DF92EF92FF926B017C010E94070117
:100270004B015C01C114D104E104F104F1F00E94CE
:100280000701DC01CB0188199909AA09BB09883E3D
:100290009340A105B10570F321E0C21AD108E1082D
:1002A000F10888EE880E83E0981EA11CB11CC114D1
:1002B000D104E104F10419F7DDCFFF90EF90DF9056
:1002C000CF90BF90AF909F908F9008950E940701AC
:1002D00078942091CA043091CB04AB01421B530B9C
:1002E0009A017093CB046093CA04293B5BE0350705
:1002F00018F01092C90408958091C904A9014558C5
:1003000053404331554050F48C3040F4E82FF0E036
:10031000EE0FFF1FEB5CFE4F318320838F5F8093D6
:10032000C90408952FB7F89460916505709166052A
:1003300080916705909168052FBF08951F920F92D5
:100340000FB60F9211242F933F938F939F93AF93E8
:10035000BF938091650590916605A0916705B09166
:1003600068053091640523E0230F2D3720F40196B2
:10037000A11DB11D05C026E8230F0296A11DB11DC8
:10038000209364058093650590936605A0936705A7
:10039000B09368058091690590916A05A0916B05FD
:1003A000B0916C050196A11DB11D809369059093D4
:1003B0006A05A0936B05B0936C05BF91AF919F91B7
:1003C0008F913F912F910F900FBE0F901F90189516
:1003D0001F920F920FB60F9211242F933F934F93BA
:1003E0005F936F937F938F939F93AF93BF93EF939D
:1003F000FF93E0910201F09103010995FF91EF91C4
:10040000BF91AF919F918F917F916F915F914F912C
:100410003F912F910F900FBE0F901F9018951F9234
:100420000F920FB60F9211242F933F934F935F9328
:100430006F937F938F939F93AF93BF93EF93FF93AC
:10044000E0910001F09101010995FF91EF91BF91B9
:10045000AF919F918F917F916F915F914F913F915C
:100460002F910F900FBE0F901F9018958EBD00001A
:100470000DB407FEFDCF8EB508951F920F920FB6F3
:100480000F9211248F939F93EF93FF939091C60047
:10049000E091600181E08E0FF0E0EF59FE4F908314
:1004A00080936001FF91EF919F918F910F900FBE0C
:1004B0000F901F9018951F920F920FB60F92112454
:1004C0008F939F93EF93FF9380915E0190915F01D3
:1004D000981761F08F5F87FD80E0E82FF0E0EC5126
:1004E000FB4F90819093C60080935E0190915F01D5
:1004F000891305C08091C1008F7D8093C100FF9159
:10050000EF919F918F910F900FBE0F901F901895B4
:10051000FF920F931F93CF93DF9383E40E94A4086D
:100520008091870590E0982F882720918805822B5D
:1005300095958795959587959093030380930203EE
:100540008091850590E0982F882720918605822B41
:100550009195819591099595879595958795909316
:100560000503809304038091890590E0982F8827E4
:1005700020918A05822B9195819591099595879572
:1005800095958795909307038093060380911603B2
:10059000909117030097D9F1F0909205A2E0B3E093
:1005A000E8EDF4E0C2EDD4E0811522E0920721F4F9
:1005B00010821182128213824D915D91052E000CE2
:1005C000660B770B0081118122813381400F511F0F
:1005D000621F731F419351936193719339E0759535
:1005E0006795579547953A95D1F749935993813037
:1005F000910511F423E0F22E24E0E43EF207A1F687
:10060000F092920501979093170380931603C2ED21
:10061000D4E0E2E0F3E0ACECB4E089919991208180
:100620003181281B390B4D915C911197CA01805281
:1006300093402817390734F0805C994F2817390701
:100640000CF4C901819391938D939D9383E0E830DD
:10065000F80719F7DF91CF911F910F91FF9008953F
:100660008093BC008FEF9091BC0097FD0EC081502D
:10067000D1F71092BC0080917102909172020196A4
:10068000909372028093710208950895CF93C82FBA
:1006900084EA0E943003C093BB0084E8CF910C949D
:1006A00030036150A0F02091B60230E0F901EC5423
:1006B000FD4F408151E0540F50832D583D4FF901BB
:1006C000E40FF11D2081FC012193CF01EACF0895B1
:1006D0002091B60230E0D901A15ABE4F9C919F5F94
:1006E00097FD90E0F901EC51FB4FE90FF11D80837C
:1006F0009C93F901EB54FD4F9081892780830895E5
:10070000E091B602F0E0EB54FD4F80810E94680357
:10071000E1ECF0E08081806280830895CF93DF93E5
:10072000D82FC62F84E20E9468038DE40E946803DC
:10073000D11102C08EE301C081E20E946803E09102
:10074000B602F0E0EB54FD4F10828C2F0E9468033C
:10075000E091B602F0E0ED54FD4F8081DF91CF9142
:100760000C94680360E080E00E948E030C94800388
:10077000EF92FF920F931F93CF93DF931F92CDB70A
:10078000DEB7182F062F80E099830E948E03E12E9A
:100790009981F92E100F1E1531F0F70181917F011B
:1007A0000E946803F8CF0F90DF91CF911F910F91B6
:1007B000FF90EF900C948003CF93DF93EC010E94A5
:1007C000901A682F80E00E948E03FE018491882396
:1007D00031F0FE0184910E9468032196F6CFDF91EB
:1007E000CF910C9480031F920F920FB60F92112499
:1007F0002F938F939F938091C80481110DC0809196
:10080000C70481115E9A8091C70427B590E0820FDA
:10081000911D87BD81E00AC0813059F48091C704E1
:1008200027B590E0820F911D87BD82E08093C804B8
:1008300017C0823051F45E988091C60427B590E0CD
:10084000820F911D87BD83E0F1CF833049F4809101
:10085000C60427B590E0820F911D87BD1092C80491
:100860009F918F912F910F900FBE0F901F90189511
:100870001F920F920FB60F9211242F938F939F9375
:100880008091C50481110DC08091C40481115D9ACD
:100890008091C40428B590E0820F911D88BD81E04D
:1008A0000AC0813059F48091C40428B590E0820FC9
:1008B000911D88BD82E08093C50417C0823051F439
:1008C0005D988091C30428B590E0820F911D88BD8A
:1008D00083E0F1CF833049F48091C30428B590E0E0
:1008E000820F911D88BD1092C5049F918F912F9109
:1008F0000F900FBE0F901F901895E0EEF2E08081F0
:10090000918123E0959587952A95E1F79093890049
:10091000809388008281938133E0959587953A95FD
:10092000E1F78093C7048481958143E0959587958D
:100930004A95E1F78093C4048091C7048095809321
:10094000C6048091C40480958093C30486819781F6
:1009500053E0959587955A95E1F78093B4000895F3
:10096000E6E5F1E0108280E881838283838314824C
:1009700015821682178208959B01AC01AA27429F17
:10098000B0015302C00134039A0B700D811D9A1FF0
:1009900052039A0B700D811D9A1F112408956F92B6
:1009A0007F928F929F92AF92BF92CF92DF92EF92FF
:1009B000FF920F931F93CF93DF93EC018B016A801B
:1009C0007B80CE80DF80EA84FB84B301F8018081E4
:1009D00091810E94BC044B015C01B601F801828147
:1009E00093810E94BC04AB01BC01480D591D6A1DD6
:1009F0007B1D88859985AA85BB85841B950BA60BD5
:100A0000B70B88879987AA87BB87B701F8018081D0
:100A100091810E94BC044B015C01B601F801848104
:100A200095810E94BC04861A970AA80AB90A88818F
:100A30009981AA81BB81880E991EAA1EBB1E88823D
:100A40009982AA82BB82B701F801828193810E94B8
:100A5000BC046B017C01B301F801848195810E9483
:100A6000BC04DC01CB018C0D9D1DAE1DBF1D0C8196
:100A70001D812E813F81800F911FA21FB31F8C8388
:100A80009D83AE83BF83DF91CF911F910F91FF9024
:100A9000EF90DF90CF90BF90AF909F908F907F901E
:100AA0006F9008954F925F926F927F928F929F9274
:100AB000AF92BF92CF92DF92EF92FF92CF936B01F2
:100AC0007C0149015A010E943B1C2B013C01B701EA
:100AD000A601F7FE07C044275527BA014C195D0946
:100AE0006E097F09D501C401B7FE07C08827992781
:100AF000DC0188199909AA09BB09C1E048175907FF
:100B00006A077B0744F0C0E0C501B4010E943B1CAA
:100B1000A301920108C0C501B4010E943B1C9B01C6
:100B2000AC01C301B2010E94911B2B013C019B014E
:100B3000AC010E94C71C21ED31E944E650E40E945B
:100B4000251B9B01AC01C301B2010E94911B23EC48
:100B50003DEC4FEF54E40E94C71C0E94031C9B0114
:100B6000CC2359F0B7FE12C0F7FE03C0285037401F
:100B70000DC09B01285F384F09C0F7FC03C024E873
:100B800033E002C02CE73CEF261B370BC901CF91A5
:100B9000FF90EF90DF90CF90BF90AF909F908F909D
:100BA0007F906F905F904F90089540E150E060E03B
:100BB00070E081E692E00E94991AE1E6F2E085E5B4
:100BC0009FE09E0F9E1719F02191820FFBCF90910D
:100BD0007002891741F01092610288E893E19093C6
:100BE0006302809362020895CF92DF92EF92FF92A8
:100BF0000F931F93CF93DF93082F142FC0E0C62EBF
:100C0000D12CE12CF12CC11791F0D0E0D01739F0A4
:100C10001D9AC701B6010E942C01DF5FF7CF6CE37C
:100C200070E080E090E00E942C01CF5FECCFDF917C
:100C3000CF911F910F91FF90EF90DF90CF9008958B
:100C4000209116033091170380911803232BA9F4E8
:100C5000982F9274E1F482608093180380911403BA
:100C60009091150390930F0380930E038091B70228
:100C7000813168F080933401089581FD08C041E01E
:100C80006FEF82E00E94F40581E080939305089560
:100C90002F923F924F925F926F927F928F929F928C
:100CA000AF92BF92CF92DF92EF92FF920F931F937A
:100CB000CF93DF93CDB7DEB72A970FB6F894DEBF98
:100CC0000FBECDBF1092610243E750E060E170E0DB
:100CD0008AE193E00E94991AEAE1F3E085E592E760
:100CE0009E0F9E1719F02191820FFBCF90918C03DC
:100CF0008913B1C0E0903903F12C0091380396EDCF
:100D0000C92E92E0D92E612C712C10E028EA822E97
:100D100024E0922EA12CB12C669C9001679C300D92
:100D2000300D11242F503109E29EC001E39E900D39
:100D3000F29E900D11248A509A4F869DD001879D76
:100D4000B00D969DB00D112498010E94681DA5015B
:100D500094010E94C11AF601219331936F01FFEFB4
:100D60006F1A7F0A25E062167104B1F610913D03F7
:100D700004E6011BE4E61E9FC00111249C838B83C3
:100D800020903E03422C512C612C712CE0908A0360
:100D9000F0908B0380E897E06C01CE18DF0880ECC0
:100DA00092E09A8389831A86312C80E1882E87E22B
:100DB000982EA12CB12C9A85911B9987191614F0A5
:100DC000412F01C0402FE985EE02D001112491018D
:100DD0000E94681D6D837E838F839887242F30E067
:100DE000D9010E94151B9B01AC016D817E818F8111
:100DF00098850E94C11ADA01C9018C599F4FAF4FE3
:100E0000BF4F84199509A609B709F9852F2FFF0F40
:100E1000330B289FA001299F500D389F500D11249E
:100E20002B813C81240F351FD6010E94151BA50183
:100E300094010E94F31A2E0D3F1DE981FA8121933E
:100E40003193FA83E983FA85F65FFA87FE3609F073
:100E5000B2CF81E00BC043E064E686E00E94F40577
:100E600083E0809392050E94750780E02A960FB672
:100E7000F894DEBF0FBECDBFDF91CF911F910F91D0
:100E8000FF90EF90DF90CF90BF90AF909F908F90AA
:100E90007F906F905F904F903F902F900895CF93E9
:100EA000C82F10926102EAE1F3E095E582E78E0F28
:100EB0008E1719F02191920FFBCF90938C0343E78B
:100EC00050E060E170E08AE193E00E94A91A0E947C
:100ED0004806C13029F441E064E18FE00E94F40546
:100EE00081E080939205CF910895EAE1F3E081E2F9
:100EF00080832EE1218397E19283838324839583EA
:100F00009AE5958B2AE0268B24E6278B24E426831A
:100F10002DE22783108620E4218729E1228738E10A
:100F200033873FE034871586168632E237873EE006
:100F3000308B35E3318B228B838B83E5848B88E286
:100F4000808F138E148E158E968F81E4878F10A25A
:100F500011A212A282E383A314A212A611A614A6C0
:100F600013A616A615A610AA17A612AA11AA16A2AB
:100F700015A210A617A213AA83E8809386038BE616
:100F80008093870383E6809388038DE580938903AC
:100F900088E394E090938B0380938A0380E00C9421
:100FA0004F078091EB05882319F042981092EB05CA
:100FB0000895CF92DF92EF92FF920F931F93CF93FA
:100FC000DF93E0919605E11117C0E1E0E09396050B
:100FD0009093C3058093C2057093C5056093C405C3
:100FE0005093C7054093C6051093C9050093C805E3
:100FF0003093CB052093CA05E091B405E33030F57A
:10100000F0E0EE0FFF1FEE53FA4FC081D181209721
:1010100009F44CC0E090CA05F090CB058091EB0537
:10102000811165C00E9492010091A3051091A40551
:101030002091A5053091A6050E0D1F1D211D311D06
:10104000601771078207930718F530C0C090A30599
:10105000D090A405E090A505F090A6050E9492010D
:101060002091C8053091C905DC01CB01821B930B8F
:10107000A109B109C816D906EA06FB06B8F4109210
:10108000B4051092960510928B051092920525C01A
:1010900081E08093EB05429A0E9492016093A30540
:1010A0007093A4058093A5059093A60590919B0548
:1010B0008091B405913051F0E82FF0E0EE0FFF1F62
:1010C000EE53FA4F20813181232BA9F5833018F498
:1010D0008F5F8093B40510929B05DF91CF911F9194
:1010E0000F91FF90EF90DF90CF900C94D1070E946A
:1010F00092010091A3051091A4052091A5053091BE
:10110000A6050C0F1D1F211D311D601771078207D9
:10111000930760F21092EB0542980E94920160934F
:10112000A3057093A4058093A5059093A60581E07F
:1011300080939B05BBCFDF91CF911F910F91FF90C3
:10114000EF90DF90CF9008951F93CF93DF93C82F38
:1011500080ED0E944603C093BB0084E80E943003E8
:1011600081ED0E944603C5E8D5E01C2F1B5F1C17CC
:1011700039F084EC0E9430038091BB008993F7CF53
:1011800084E80E9430038091BB0094E99093BC00F6
:1011900080938A05DF91CF911F910895EF92FF927E
:1011A0001F93CF93DF931F92CDB7DEB7182F80ED3B
:1011B00069830E9446038BEBE82EF12CF701108324
:1011C00084E80E9430036981F701608384E80E940B
:1011D000300384E98093BC000F90DF91CF911F9181
:1011E000FF90EF9008959CB59F7D9CBD9CB5937F2B
:1011F0009CBD9CB59C7F9CBD9DB591609DBD682F9D
:1012000080916F050E94BB008091810590918205BD
:101210008230910538F0880F991F880F991F059724
:101220000197F1F7089580E00C94F308CF930E94A2
:10123000130981EE0E943602C82F81E00E94F30854
:101240008C2FCF9108951F93CF93DF931F92CDB72B
:10125000DEB789830E94130989818F710E9436024B
:101260008FEF0E943602182F81E00E94F308812F31
:101270000F90DF91CF911F9108951F93CF93DF932C
:1012800000D0CDB7DEB76A8389830E9413098981B4
:101290008F7180620E943602182F6A81862F0E9409
:1012A000360281E00E94F308812F0F900F90DF91AA
:1012B000CF911F910895EF92FF920F931F93CF93B9
:1012C000DF9300D01F92CDB7DEB7162F4A837B8302
:1012D00089830E94130989818F7180620E9436027E
:1012E000082FE12E7B81F72E4A81140F1E1531F055
:1012F000F70181917F010E943602F8CF81E00E94C0
:10130000F308802F0F900F900F90DF91CF911F91D6
:101310000F91FF90EF90089580E00E94230981FDD6
:101320000BC0682F626080E00E943D0965E070E0BC
:1013300080E090E00C942C0108950F931F93CF93BD
:101340008C0186E00E942309C82FC77D0230110559
:1013500031F4C0628BE990E0A0E0B0E00DC0013054
:10136000110529F085E590E0A0E0B0E005C0C86077
:1013700081E490E0A0E0B0E080937D0590937E054D
:10138000A0937F05B09380056C2F86E00E943D09F5
:1013900086E00E94230991E08C1390E0892FCF9181
:1013A0001F910F91089590E0FC01E75FFE4F24919B
:1013B000FC01EB50FF4F8491882399F090E0880F57
:1013C000991FFC01E551FF4FA591B491FC01EF512C
:1013D000FF4F859194918FB7F894EC91E22BEC93A9
:1013E0008FBF0895CF93DF93CDB7DEB7ED970FB6DC
:1013F000F894DEBF0FBECDBF789484B5826084BD03
:1014000084B5816084BD85B5826085BD85B5816008
:1014100085BD80916E00816080936E001092810086
:101420008091810082608093810080918100816041
:101430008093810080918000816080938000809102
:10144000B10084608093B1008091B000816080938E
:10145000B00080917A00846080937A0080917A0055
:10146000826080937A0080917A00816080937A0014
:1014700080917A00806880937A001092C10082E0A7
:101480008093C0001092C50080E18093C4008091D9
:10149000C10088698093C1008DE00E94D30980E17A
:1014A0000E94D3090CE111E0E4E0FE2EF00ED80119
:1014B0008D918D010E94D309F012F9CF80918000A7
:1014C00080688093800014BC80916E00846080935B
:1014D0006E0080916E00826080936E008091B000FB
:1014E00080628093B00088EE93E09093E102809355
:1014F000E0029093E3028093E2029093E5028093EE
:10150000E4029093E7028093E6020E947D046CE27D
:1015100071E080E090E00E942C010E94D5051092BD
:1015200061020E94480680916102882321F0815067
:1015300080936102F6CF0E94D5050E944806409133
:1015400061024F5F68E282E00E94F40586E691E066
:1015500090930101809300018091690083608093E2
:101560006900E89A0E94B00480916D0590916E0523
:1015700020916F05309170058217930711F00E943A
:10158000D30980916F059091700520916D05309180
:101590006E052817390711F00E94D3091FB7F89478
:1015A00080918D03811124C0EFEFF0E08491E3E19D
:1015B000F1E09491E82FF0E0EE0FFF1FE551FF4FAF
:1015C000A591B491EC91E92321F461E08AE00E94B5
:1015D000BB008AE00E94D3098CB580618CBD8CB5BC
:1015E00080648CBD8DE00E94D3098BE00E94D309FA
:1015F00080918D038F5F80938D031FBF80916D0558
:1016000090916E0520916F053091700582179307B8
:1016100019F060E00E94BB0081E00E94F30865E0E1
:1016200070E080E090E00E942C016CE080E00E947D
:101630003D096FE584E00E943D0982E090E00E9450
:101640009D09882319F081E08093730586E00E944C
:10165000230980E090E00E949D090E94130980E523
:101660000E94360283E70E94360281E00E94F3085E
:1016700060E08DE10E943D0960E08CE10E943D093F
:101680001092750560E787E00E943D096CE485E0F3
:101690000E943D090E94130982EE0E94360281E0F9
:1016A0000E94F3080E9416090E948C0980E00E94A3
:1016B0002309682F6E7F80E00E943D09EFE6F0E08D
:1016C000849140917B056DE471E00E945B09E9E63D
:1016D000F0E08491609174050E943D0982E00E94CF
:1016E0002309E5E7F0E0E49161E070E001C0660FF6
:1016F000EA95EAF7682B82E00E943D098DE10E949D
:101700002309682F64608DE10E943D098CE10E94ED
:101710002309682F6F638CE10E943D0981E080936B
:10172000750560E00E943D0982E090E00E949D09FD
:1017300086E00E942309887F682F616086E00E940E
:101740003D096CE685E00E943D090E948C090E94DB
:101750008C0980E00E942309682F616080E00E946C
:101760003D0960E787E00E943D0980916D059091F9
:101770006E0520916F05309170058217930719F05F
:1017800061E00E94BB0080917605882341F0409182
:101790007B0566E775E08AE00E945B0912C082E083
:1017A0000E942309E4E7F0E0E49121E030E001C089
:1017B000220FEA95EAF72095622F682382E00E94C3
:1017C0003D098DE10E94230981FD0E94160915E063
:1017D0000CE064E0F62E449845981092B90000930E
:1017E000B800F092BC00109272021092710260E890
:1017F0008BE60E94CE0862E370E080E090E00E94F9
:101800002C0163E08BE60E94CE0863E08AE10E942F
:10181000CE0868E18BE10E94CE0862E087E30E9477
:10182000CE0860E18CE10E94CE0880917102909117
:101830007202892B11F0115071F60E94070170930A
:1018400091046093900480E092E09093170380935A
:10185000160388EC90E090938F0380938E03809121
:1018600018038068809318038AE790E055E0852E7E
:10187000880E89AE82E994E045E0942E980E98AEE9
:101880000E9492014B015C0187E10E94230980FDC7
:1018900037C010917405183088F108E08091750503
:1018A000811102C0101B01C010E00E94130981E6E3
:1018B0000E94360236E5E32E31E0F32E015038F077
:1018C0008FEF0E943602D7018D937D01F7CF112350
:1018D00029F08FEF0E9436021150F9CF81E00E946B
:1018E000F30860E787E00E943D09809290039092A0
:1018F0009103A0929203B0929303C6CF012FCECF53
:101900008091900390919103A0919203B0919303E1
:10191000881A990AAA0ABB0A19EE811613E09106E1
:10192000A104B10410F00E94B0042091560130E0EF
:10193000A8EEB3E00E94151BC12CD12C7601CA94ED
:10194000A70196010E94C11ADA01C90188519C4F72
:10195000AF4FBF4F9093E3038093E2032091570171
:1019600030E0A8EEB3E00E94151BA70196010E948B
:10197000C11ADA01C90188519C4FAF4FBF4F9093F4
:10198000DF038093DE032091580130E0A8EEB3E03E
:101990000E94151BA70196010E94C11ADA01C90114
:1019A00088519C4FAF4FBF4F9093DD038093DC0372
:1019B0002091590130E0A8EEB3E00E94151BA70169
:1019C00096010E94C11ADA01C90188519C4FAF4F9C
:1019D000BF4F9093E1038093E00320915A0130E0E0
:1019E000A8EEB3E00E94151BA70196010E94C11A40
:1019F000DA01C90188519C4FAF4FBF4F9093E50367
:101A00008093E40320915B0130E0A8EEB3E00E94F4
:101A1000151BA70196010E94C11ADA01C90188515C
:101A20009C4FAF4FBF4F9093E7038093E603209105
:101A30005C0130E0A8EEB3E00E94151BA7019601FF
:101A40000E94C11ADA01C90188519C4FAF4FBF4FA4
:101A50009093E9038093E80320915D0130E0A8EEC4
:101A6000B3E00E94151BA70196010E94C11ADA017A
:101A7000C90188519C4FAF4FBF4F9093EB038093A8
:101A8000EA038091BF049091C0042091BD0430917D
:101A9000BE04FC01E21BF30B1E161F060CF0DEC198
:101AA000805E914B9093BE048093BD048091F403BB
:101AB0008F5F833019F08093F40302C01092F40317
:101AC000A090F403D09023040CED13E0B4E98B2E26
:101AD000B3E09B2E45EA54E064E274E0B12CAA0C1A
:101AE000BB1CFA01C12CD801ED90FD908D01D401F1
:101AF0002D913C91119712968D919C911397820F85
:101B0000931F029614962D913C911597820F931F67
:101B10008E0D9F1D9695879596958795208131818D
:101B2000235031098217930728F49C012E5F3F4F01
:101B300031832083208131812D5F3F4F2817390762
:101B400018F4029791838083C4018A0D9B1DDC01E8
:101B5000ED92FC92B7E0BC1560F0DD2051F0DA9414
:101B6000DB018D919C918538B3E09B0714F0918344
:101B70008083C39426E0820E911C32966E5F7F4F65
:101B80003CE0C312B0CFD092230410E0812F90E04C
:101B90009595879595958795182FDA012D913D910B
:101BA000AD012D34B4E03B0724F010682C363740EB
:101BB0000CF41064F4E04D3A5F0741F78091A404FF
:101BC000181308C08091A3048A3F30F48F5F80937C
:101BD000A30402C01092A3041093A4048091AB0448
:101BE0009091AC048D34944074F51092A00410923E
:101BF0009F041092A2041092A10410929B041092D0
:101C00009C0410929D0410929E04109298041092CD
:101C1000970410929A041092990480914303909132
:101C20004403892B81F090919204809118039923A9
:101C300029F080FF03C00E94200605C081FF03C079
:101C40008D7F809318038091A304843179F480916F
:101C5000180381FF12C02091430330914403232BCA
:101C600029F41D3719F48D7F80931803ADEAB4E091
:101C700080E090E0E0E0F0E051C0173539F480E01A
:101C800092E0909317038093160309C01B3639F432
:101C90000E9407017093910460939004E7CF8091B4
:101CA000430390914403892B29F41E3719F40E94B1
:101CB0002006DCCF173939F480E092E090938F044E
:101CC00080938E04D3CF1B3B31F4809141039091DC
:101CD0004203029607C0173B59F48091410390914B
:101CE0004203029790934203809341030C945E1A3F
:101CF0001E3B31F480913F0390914003029608C04F
:101D00001D3B09F0B3CF80913F03909140030297B0
:101D10009093400380933F030C945E1A6D917D91E4
:101D200041E050E0653A36E0730714F440E050E0DB
:101D30009C012E5F3F4F7A0102C0EE0CFF1C2A95DA
:101D4000E2F701E010E0643145E0740714F000E0D0
:101D500010E0A801082E02C0440F551F0A94E2F7B4
:101D60004E295F296551754021E030E06F387140A0
:101D700010F020E030E0BC016F5F7F4F02C0220F07
:101D8000331F6A95E2F7422B532BE42BF52B039676
:101D90008C30910519F643E453E062E974E0DA010E
:101DA0008D919D91AD018E239F2321E0892B09F414
:101DB00020E0DB012D93BD0188AC8A12F0CF809129
:101DC000930481110C94651A80918C0490918D0478
:101DD000C39714F00C94651A80911803877F809341
:101DE000180380919404882389F080911803877FD9
:101DF0008093180384FD0FC01092980410929704EA
:101E000010929A0410929904806103C08091180383
:101E10008F7E8093180380919204811105C0809178
:101E2000180381608093180380919504882381F0C2
:101E30008091180385FD22C08062809318038091F1
:101E400014039091150390930F0380930E0316C013
:101E5000809118038F7D8093180310C080918B04AC
:101E6000823051F028F4882339F0813029F006C0FF
:101E7000833011F0843011F410928B040E9407011A
:101E80006093BF047093C0048093C1049093C20414
:101E900020919004309191045B01A21AB30AB09290
:101EA0008A04A092890410EFA1161AE0B10630F35B
:101EB00070939104609390048BE30E94A408809136
:101EC000850590E0982F882720918605822B23E0B6
:101ED000959587952A95E1F79093090380930803D8
:101EE0008091870590E0982F882720918805822B84
:101EF00043E0959587954A95E1F790930B0380937E
:101F00000A038091890590E0982F882720918A05FF
:101F1000822B63E0959587956A95E1F790930D0381
:101F200080930C0380918E0490918F04009709F4A4
:101F30006AC0019790938F0480938E04E5EFF3E0DD
:101F400020E030E08F3F41E0940721F410821182BD
:101F500012821382D901A051BD4F58964D915C91C8
:101F60005997052E000C660B770BC080D180E2805C
:101F7000F3804C0D5D1D6E1D7F1D41935193619348
:101F80007193D901AF59BD4F19E075956795579574
:101F900047951A95D1F712965C934E9311972E5F41
:101FA0003F4F2630310571F6892B69F58091660225
:101FB000909167029250909367028093660210920C
:101FC000400310923F031092420310924103E1E656
:101FD000F2E085E59FE09E0F9E1719F02191820F98
:101FE000FBCF8093700240E150E060E070E081E65A
:101FF00092E00E94A91A41E064E18FE00E94F4059A
:1020000081E08093920580910803909109032091CB
:10201000620230916302821B930B909309038093B9
:10202000080380910A0390910B0320916402309180
:102030006502821B930B90930B0380930A0380919C
:102040000C0390910D032091660230916702821B70
:10205000930B90930D0380930C030E9407016B0177
:102060007C018091110490911204B601681B790BD8
:1020700080E090E00E94391C29E134E442E959E310
:102080000E94C71C2B013C01D0921204C092110483
:1020900085E094E09C8F8B8FA0EFB2E0B8A3AF8F68
:1020A000FE0131961F018D01C12CD12C76011F8AB2
:1020B000AB8DBC8D8D909D90AD90BC90D501C40131
:1020C00074E0B695A795979587957A95D1F7F8011D
:1020D00091838083408D518D481B590B052E000C38
:1020E000660B770B480D591D6A1D7B1DEB8DFC8D12
:1020F0004193519361937193FC8FEB8FBC010E94CC
:10210000BC04C60ED71EE81EF91ED80152966D916A
:102110007C915397072E000C880B990B0E943B1C57
:10212000A30192010E94C71C0E94031CF10161934C
:1021300071931F01FF89FF5FFF8B0E5F1F4FF3300D
:1021400009F0B6CFBE016F5F7F4F80E191E00E9442
:10215000CF04BE016F5F7F4F84E091E00E94CF0407
:10216000CD2CDE2CEF2CFF24E7FCFA9417E6C11AE5
:1021700013E0D10A60E1E62E61E0F62E00EF12E0F6
:10218000412C512C320122E3C21621E0D206F8F490
:10219000D8018D919C91F70122813381821B930B91
:1021A000092E000CAA0BBB0B46E0880F991FAA1F33
:1021B000BB1F4A95D1F74081518162817381840FA1
:1021C000951FA61FB71F80839183A283B383D70176
:1021D00012966D917C911397F801819191918F01E5
:1021E0000E94BC04460E571E681E791EF4E0EF0ED6
:1021F000F11C2CE1E21621E0F20629F620911A01E9
:1022000030911B0180911803213D314014F080680A
:1022100001C08F7780931803809112019091130170
:10222000BC010E94BC046B017C0180911A01909159
:102230001B01BC010E94BC0446015701860E971E7B
:10224000A81EB91E8F8A988EA98EBA8E809116010B
:1022500090911701BC010E94BC04680D791D8A1D74
:102260009B1D0E943B1C8B019C0135952795179562
:102270000795A9EFCA2EDD24DA94AFE1EA2EAFE587
:10228000FA2EC01AD10AE20AF30A27E336E344E33E
:102290005FE30E94C71CA70196010E94C71CA7010B
:1022A00096010E94C71C9B01AC0166EF78E487EDA4
:1022B0009FE30E94241B9B01AC01C701B6010E9451
:1022C000C71C6B8F7C8F8D8F9E8F00911201109198
:1022D000130120911A0130911B01032E000C440BB5
:1022E000550BB801012E000C880B990B0E9452056A
:1022F00090931103809310036F89788D898D9A8D47
:102300000E943B1C4B015C01DC01CB01B595A795FC
:102310009795879539EFC32EDD24DA943FE1E32EBC
:102320003FE5F32EC81AD90AEA0AFB0A27E336E387
:1023300044E35FE3C501B4010E94C71CA7019601F5
:102340000E94C71CA70196010E94C71C9B01AC01FB
:1023500066EF78E487ED9FE30E94241B9B01AC01AC
:10236000C701B6010E94C71CA50194010E94C71CA9
:102370000E94031C9B01AC018091160190911701F2
:10238000BC01990F880B990B0E945205909313037F
:1023900080931203A0910A01B0910B012F89388D0F
:1023A000498D5A8D0E94EB1A6B017C01B801809116
:1023B0000601909107010E94BC044B015C016091F1
:1023C0001A0170911B0180910E0190910F010E94E2
:1023D000BC04A5019401260F371F481F591FA09167
:1023E0001601B09117010E94EB1AA7019601261B56
:1023F000370B480B590BCA01B9010E943B1C2B8DAE
:102400003C8D4D8D5E8D0E94C71C0E94031C9B015C
:10241000AC01609112017091130180910E019091B5
:102420000F012AAF3BAF4CAF5DAF0E94BC046B0104
:102430007C0160911A0170911B01809106019091BD
:1024400007010E94BC0446015701861A970AA80A90
:10245000B90AC501B4012AAD3BAD4CAD5DAD0E94DA
:1024600052056AE070E00E94541D7093150360935A
:102470001403C301B2010E943B1C2B8D3C8D4D8D7A
:102480005E8D0E94C71C0E94031C2091180321FD31
:1024900014C040910104509102049A01E3E0359583
:1024A0002795EA95E1F75A01A21AB30A9501260F7A
:1024B000371F3093020420930104209101043091CE
:1024C000020443E0359527954A95E1F7AB01421B9D
:1024D000530B50930404409303040E94880280919C
:1024E00002039091030390936604809365048091A6
:1024F000040390910503909368048093670480918E
:1025000006039091070390936A04809369040E94E4
:1025100007012B012091AB043091AC042D3D15E057
:102520003107A4F080913C03203D47E0340754F488
:10253000B9016C5D7540869FA001879F500D1124E5
:10254000852F869590E8992E981A02C090E8992ECA
:1025500020903A03312C05EA602E04E0702E81E8C9
:1025600094E09CA78BA7AAE1B3E0BC8FAB8F5D0181
:10257000FC0140E050E080E8882ED3016D917D9110
:102580003D016D3DB5E07B072CF0603D17E0710724
:1025900064F008C08CED95E0861B970B843FA1E0AA
:1025A0009A0734F084EF91E003C0CB018C5D954035
:1025B0004230510509F469C08C01000F012F001F42
:1025C000110B1195D801AA0FBB1FAA52BD4FED9058
:1025D000FC90F88EEF8A7801EE0CFF1CD701A85210
:1025E000BD4FED90FC90AF89B88DEA1AFB0A1695A5
:1025F000102F0027179507956C01C01AD10AEC9C83
:102600008001ED9C100DFC9C100D1124000F012F7A
:10261000001F110B11950A0F1B1F11830083829D50
:10262000D001839DB00D929DB00D11248B2F869506
:10263000B82DB81BB99DC0011124880F892F881FA0
:10264000990B9195D501FC90F89E8001F99E100D93
:102650001124000F012F001F110B1195DA01A15851
:10266000BB4F0C93D50112961C91189FD001199F56
:10267000B00D1124CD01880F892F881F990B9195DA
:10268000DA01AF58BB4F8C9302C0918380836C3DBD
:1026900075403CF480819181919581959109918358
:1026A00080834F5F5F4F329613E0A10EB11C433021
:1026B000510509F062CF2C3444E034073CF0213D51
:1026C00057E035072CF020ED37E002C02CE434E071
:1026D0002C543440AFEFB9E00E94151B24E833E0DE
:1026E00040E050E00E94F31A832F9927FC01EE0F7F
:1026F000FF1FE054FD4F60817181FC01EE0FFF1F51
:10270000EE53FD4F0190F081E02DE61BF70B982F63
:1027100088278901081B190BE09FC001E19F900DDC
:10272000F09F900D1124892F9927680F791F7093BE
:1027300088046093870480915E0491E0980F9093E1
:102740005E0463E00E94341D9130A9F583E4809318
:102750007C0080917A00806480937A0080917A0076
:1027600086FDFCCF409178008091790050E0582B95
:1027700020915B04E22FF0E0EE0FFF1FE55CFB4FC2
:1027800080915C0490915D0460817181861B970B40
:10279000840F951F90935D0480935C045183408364
:1027A0002F5F2F7020935B046091860370E00E947E
:1027B000401D6093B70280919604882321F081E048
:1027C00080938E0502C010928E05909189038091AE
:1027D0003401891710F483E014C08091B70220916E
:1027E0008703281710F0803118F4109291050BC060
:1027F00020918803281710F481E003C0981718F47B
:1028000082E080939105809171029091720201960D
:102810008636910520F081E08093940502C01092E5
:10282000940581E08093130480918C05813019F424
:1028300000ED17E05CC0823021F08091930581307B
:1028400069F402E310E022E330E048EC50E068EC89
:1028500070E082E390E00E94D90777C080918B05F9
:10286000813049F400E010E022E330E040E050E045
:1028700060E070E0EECF823039F400E010E022E357
:1028800030E040E050E01EC0833019F400E010E07A
:1028900006C080918E05813039F402E310E022E316
:1028A00030E042E350E00EC080919005813071F33A
:1028B00080919105833049F400ED17E022E330E088
:1028C00048EC50E062E370E0C4CF823039F400EDB0
:1028D00017E022E330E040E050E0B9CF813009F466
:1028E000A7CF80919205813049F408EC10E022E3F3
:1028F00030E040E050E060E070E013C0823039F436
:1029000008EC10E022E330E040E050E008C0833003
:1029100059F408EC10E022E330E048EC50E068ECB9
:1029200070E088EC90E097CF80919605813059F463
:1029300000E010E020E030E040E050E060E070E0D7
:1029400080E090E088CF0E94D1071092930580919B
:102950008E0490918F04892B31F48091160390910D
:102960001703892B11F01D9A08C08091180382FD6E
:102970002D988091180381FD2D9A4091BF045091AC
:10298000C0046091C1047091C20480913704909199
:102990003804A0913904B0913A0484179507A6072A
:1029A000B70700F58091180387FD19C08B7F8093CE
:1029B00018031D9A8091BF049091C004A091C10496
:1029C000B091C20480569947AE4FBF4F80933704F1
:1029D00090933804A0933904B0933A0403C0846000
:1029E000809318030E9407011092B6029091600133
:1029F00080911404981BE12CB2E0FB2E12E3712E9F
:102A000000E8C02E07E0D02E88EEA82E83E0B82E76
:102A100088248394912C37EE632E8FEF890F9923AE
:102A200009F4DBC190915F0120915E01921B9F77B9
:102A30009F3408F0D2C190911404E92FF0E0EF59CF
:102A4000FE4F208130916001391719F09F5F9093FC
:102A5000140490913604911104C091E0243259F489
:102A6000B8C1913019F42D3431F4ADC1923029F44C
:102A70002C3309F4AAC190E0ACC1933069F421343D
:102A800008F0A9C1209335042093B50210923404B4
:102A90001092B40294E09DC1943049F42093B302A3
:102AA0009091B50229272093B50295E092C1953007
:102AB00009F08FC1E0913404409135043091B502A2
:102AC000E41760F432273093B50231E03E0F3093C3
:102AD0003404F0E0ED58FD4F20837BC1321377C101
:102AE0008091B302853709F431C108F060C08D369A
:102AF00009F420C130F5873609F400C1B0F48536F9
:102B000009F4C9C008F0F6C0843609F055C16982DD
:102B100083E08A831B8280E090E0A0E0B0E78C83B2
:102B20009D83AE83BF8367E0E2C0893609F4FEC0AF
:102B300008F4F2C08C3609F03FC166E080E193E012
:102B400038C1813709F405C148F48F3609F4F6C05D
:102B500008F0F8C067E087EB92E02BC1833709F4F7
:102B60000BC108F0FAC01A82198280918A039091F1
:102B70008B039C838B83DE82CD82B886AF821A86DC
:102B800019861C861B861D861E861F86188A1A8A31
:102B9000198A809186038B8B809187038C8B80911F
:102BA00088038D8B809189038E8B66E1A0C08F3C5A
:102BB00009F451C0C8F48A3CD1F178F4883709F49B
:102BC000A1C0883C61F1873709F0F6C065E080E07C
:102BD0000E948E030AE710E0C5C08C3CB1F168F199
:102BE0008D3C09F4D4C0E8C08F3E09F499C050F47C
:102BF000833D09F44AC0843D09F488C0803D09F052
:102C0000DBC0BEC08A3F09F4CBC08E3F09F4CEC002
:102C1000803F09F0D1C064E08FE393E0CAC060E177
:102C200084E294E00E94510370922304D0C00E9479
:102C3000B2036EE18AE193E005C00E94B2036AE04C
:102C400083E493E00E945103C2C00E94B20367E094
:102C500088E393E0F7CF0E94B20366E1CE010196CC
:102C60000E9451038B819C8190938B0380938A03F4
:102C70008B89809386038C89809387038D898093C9
:102C800088038E8980938903A2C00E94B20362E008
:102C90008EE093E0D7CF8091890490918A049A8343
:102CA000898380917102909172029C838B839E82B2
:102CB0008D822091180323FF05C082E090E0A0E000
:102CC000B0E003C080E090E0DC0124FD846025FDDD
:102CD0008860309196043111806121FD81608F837D
:102CE0009887A987BA87809161028B876BE0CE01B4
:102CF00001965FC062E180EF92E05BC060E184E238
:102D000091E057C068E38EE493E053C00E94B203A1
:102D100068E38EE493E096CF60E180EE92E049C0F4
:102D20000E94B20364E08FE393E08CCF68E185EA10
:102D300094E03FC066E08DE194E03BC067E088E34B
:102D400093E037C06EE18AE193E033C08DE990E013
:102D500006C06AE083E493E02CC08FE790E00E9415
:102D6000DC0335C0F80184910E9468030F5F1F4F98
:102D7000F9ADF013F7CF24C068E08CE191E019C001
:102D80008091180381FD0FC00E9475070CC08091CF
:102D9000180381FD08C0F0928F04E0928E0403C0F6
:102DA00080E00E944F070E94B20311C068E085E1F5
:102DB00094E00E94B8030BC060E081E00E948E03A3
:102DC0000E94800304C092E004C093E002C090E03F
:102DD00080E090933604982F20CE10911803212F75
:102DE00022702FAB11FF0AC08091B702813130F001
:102DF00090913401891710F4809334010E940701E7
:102E0000641975096A387240CCF30E948802E5E6BD
:102E1000F4E066EFC62E62E0D62E7FE5E72E74E082
:102E2000F72EA3E0AA2EB12CD6011C962D913C9131
:102E30001D9780819181280F391F21933193D701EC
:102E40008D919C91820F931FB5010E94541DD60154
:102E50006D937D936D0135952795D7012D933D9306
:102E60007D01B4E0EB36FB07F9F620918504309143
:102E70008604A9014B5B5F4F809114039091150369
:102E80004B38510568F515FF2BC040910E0350914A
:102E90000F03841B950B8D34EFEF9E0714F48859B4
:102EA0009E4F843B910514F08856914017FD04C055
:102EB000409119034370C1F060913203689FA001F3
:102EC000699F500D1124CA0145E0959587954A9553
:102ED000E1F7281B390B309386042093850404C046
:102EE00090930F0380930E0314FF22C0C0908304BD
:102EF000D0908404D7FE03C0D194C194D1088091AE
:102F000081049091820497FF03C091958195910966
:102F10009601C816D9060CF49C012130F2E03F0757
:102F200014F020E032E06901330FEE08FF0803C01F
:102F3000C12CD12C76013FE9632E34E0732E2FE7AC
:102F400034E03AAB29AB4BE754E05EA34DA387E7EF
:102F500094E09CA38BA3A3E7B4E0BAA3A9A3E1E701
:102F6000F4E0F8ABEFA72BE634E03EA72DA747E946
:102F700054E0588F4F8B212C312C012F0871ABA5B9
:102F8000BCA5AD90BD90BCA7ABA7AA0CBB1CEF8D98
:102F9000F8A126813781D3014D915C91C90137FF9A
:102FA00004C088279927821B930B81389240ACF488
:102FB000C501821B930B840F951F8138EEE39E079A
:102FC00014F080E89EE38038F1EC9F0714F480E869
:102FD00091ECD3018D939C9303C0F3011182108275
:102FE000D3018D919C91880F892F881F990BEB8DB0
:102FF000FC8D2181289FD001299FB00D11242D0126
:1030000086E0559447948A95E1F7608170E0C501A8
:103010000E94BC049B01AC0196E0559547953795FD
:1030200027959A95D1F72BAB3CAB4DAB5EAB8BA8FC
:103030009CA8002309F497C0F101EE5AFE4F80814D
:1030400091818A0D9B1D853F31E0930714F084EF39
:1030500091E08C304EEF940714F48CE09EEFF10178
:10306000E05FFC4F208131815C01A21AB30AF101BB
:10307000E65EFC4F85A196A18A0D9B1DAF89B88D98
:103080008D909C90880E991EB1E18B16B7E29B063D
:1030900024F0A0E18A2EA7E29A2EE0EF8E16E8ED4A
:1030A0009E0624F4F0EF8F2EF8ED9F2EAF89B88D99
:1030B0008D929C9260912F0370E00E94BC04AB0142
:1030C000BC01E7E07595679557954795EA95D1F767
:1030D00080913103B5E08B9FC0011124AA24BB2449
:1030E000A81AB90A4A155B052CF05A0184179507EE
:1030F0000CF45C016091300370E0C4010E94BC04D8
:103100009B01AC01FCE05595479537952795FA95BD
:10311000D1F72FA338A749A75AA7D201A21BB30BF7
:10312000A70196010E94EB1ADC01CB0169E0B5957D
:10313000A795979587956A95D1F74FA058A4480E03
:10314000591EABA9BCA9AA19BB090E94EB1ADC0144
:10315000CB0179E0B595A795979587957A95D1F7A5
:103160004501880E991EA9A9BAA96D91BAABA9AB60
:1031700070E0EF8DF8A1868197810E94BC04092C34
:10318000000CAA08BB08DC01CB0176E0B595A79539
:10319000979587957A95D1F7881A990AAA0ABB0A52
:1031A000AF8DB8A116968D919C911797EDA1FEA1B8
:1031B00020813181AC01421B530B9A018193919381
:1031C000FEA3EDA3ABA1BCA14D915C911197E9A128
:1031D000FAA180819181840F951F41935193FAA3A5
:1031E000E9A32D933D93BCA3ABA3AFA5B8A96D9163
:1031F000B8ABAFA770E0820F931F0E94BC04D2014E
:10320000A80DB91DAB01BC01E5E075956795579513
:103210004795EA95D1F7A41BB50BEDA5FEA5A193A3
:10322000B193FEA7EDA7F2E02F0E311C2F8D38A130
:103230002E5F3F4F38A32F8F32E0630E711C4B8DF2
:103240005C8D4D5F5F4F5C8F4B8F8F89988D0296A1
:10325000988F8F8B94E02916310409F090CE6091FD
:103260003B0370E0615F7F4F660F771F809185049D
:10327000909186040E94BC044B015C0165E0B5940A
:10328000A794979487946A95D1F78091FA029091C8
:10329000FB027401E81AF90A6091210370E0C7018A
:1032A0000E94BC0440909B0450909C0460909D043C
:1032B00070909E04940197FE04C02227332728199A
:1032C00039092333310524F5DC01CB01840D951D2B
:1032D000A61DB71D8F3FEFEF9E07AE07EFE0BE07BD
:1032E00024F08EEF9FEFAFEFBFE082309105A10594
:1032F000F0EFBF0724F482E090E0A0E0B0EF80930D
:103300009B0490939C04A0939D04B0939E0408C0DA
:1033100010929B0410929C0410929D0410929E04A3
:103320006091200370E0C7010E94BC046B017C0126
:1033300046E0F594E794D794C7944A95D1F79091D5
:1033400022032CE231E04901891A910844275527CC
:1033500048195909C416D5062CF0A6018C149D04F1
:103360000CF4A40180919B0490919C04A0919D0475
:10337000B0919E043DE0B595A795979587953A95B0
:10338000D1F786302FEF920734F08B3F91052CF068
:103390008AEF90E002C086E09FEF9A01280F391F64
:1033A0003093700420936F044091870450918804F7
:1033B00080916B0490916C04BA01681B790BA09109
:1033C0006D04B0916E04FB01EA0FFB1FE21BF30BCF
:1033D000F093E102E093E0026A1B7B0B620F731F24
:1033E0007093E3026093E202480F591FCA018A0FEB
:1033F0009B1F820F931F9093E5028093E4024A1B68
:103400005B0B421B530B5093E7024093E602861777
:1034100097070CF4CB01841795070CF4CA018E179B
:103420009F070CF4CF0140918A0350918B03A09128
:10343000AB04B091AC04E0EEF2E024E0F22E60E8E0
:1034400077E06B01C81AD90A1074E12E08EE13E078
:10345000813837E0930734F0208131812C0D3D1DF8
:103460003183208320813181241735073CF02138B6
:1034700067E0360724F020E837E001C09A01318385
:103480002083AC3424E0B20724F4E11002C051835D
:1034900040838FA8811002C011830083FA94329672
:1034A000F110D6CF0E947D0480E090E0892B11F4CA
:1034B0000C94400C0E9400000C943A0C81E00E9495
:1034C0004F071092A3040C94360E8091180383FFCB
:1034D00002C00C94F10E109298041092970410926E
:1034E0009A041092990488600C94EF0EEDE6F5E0D2
:1034F00087E090E09183808388E090E093838283EB
:10350000168280E28783108685E0868785E090E0DA
:10351000A0E0B0E0848B958BA68BB78B11860895C5
:10352000FC0105900020E9F7809590958E0F9F1F74
:103530000895DC01CB01FC01F999FECF06C0F2BD74
:10354000E1BDF89A319600B40D9241505040B8F761
:103550000895DC01CB0103C02D910E94B41A4150A3
:103560005040D0F70895262FF999FECF1FBA92BD8B
:1035700081BD20BD0FB6F894FA9AF99A0FBE019654
:103580000895052E97FB1EF400940E94D81A57FD4B
:1035900007D00E94F31A07FC03D04EF40C94D81AFB
:1035A00050954095309521953F4F4F4F5F4F08956F
:1035B00090958095709561957F4F8F4F9F4F08959F
:1035C0000E94151BA59F900DB49F900DA49F800D88
:1035D000911D11240895B7FF0C94E01A0E94E01A7F
:1035E000821B930B0895A1E21A2EAA1BBB1BFD019F
:1035F0000DC0AA1FBB1FEE1FFF1FA217B307E407D2
:10360000F50720F0A21BB30BE40BF50B661F771F29
:10361000881F991F1A9469F7609570958095909509
:103620009B01AC01BD01CF010895A29FB001B39FE2
:10363000C001A39F700D811D1124911DB29F700DBB
:10364000811D1124911D08955058BB27AA270E945F
:103650003C1B0C948D1C0E947F1C38F00E94861C21
:1036600020F039F49F3F19F426F40C947C1C0EF4DE
:10367000E095E7FB0C94761CE92F0E949E1C58F302
:10368000BA17620773078407950720F079F4A6F547
:103690000C94C01C0EF4E0950B2EBA2FA02D0B013C
:1036A000B90190010C01CA01A0011124FF27591B87
:1036B00099F0593F50F4503E68F11A16F040A22F8D
:1036C000232F342F4427585FF3CF469537952795FE
:1036D000A795F0405395C9F77EF41F16BA0B620BFD
:1036E000730B840BBAF09150A1F0FF0FBB1F661F44
:1036F000771F881FC2F70EC0BA0F621F731F841F87
:1037000048F4879577956795B795F7959E3F08F0AC
:10371000B0CF9395880F08F09927EE0F979587956E
:1037200008950E94A51B0C948D1C0E94861C58F0C5
:103730000E947F1C40F029F45F3F29F00C94761C16
:1037400051110C94C11C0C947C1C0E949E1C68F3AB
:103750009923B1F3552391F3951B550BBB27AA274A
:1037600062177307840738F09F5F5F4F220F331F84
:10377000441FAA1FA9F335D00E2E3AF0E0E832D04C
:1037800091505040E695001CCAF72BD0FE2F29D04F
:10379000660F771F881FBB1F261737074807AB0721
:1037A000B0E809F0BB0B802DBF01FF2793585F4F96
:1037B0003AF09E3F510578F00C94761C0C94C11C95
:1037C0005F3FE4F3983ED4F3869577956795B79578
:1037D000F7959F5FC9F7880F911D9695879597F983
:1037E0000895E1E0660F771F881FBB1F62177307FC
:1037F0008407BA0720F0621B730B840BBA0BEE1F11
:1038000088F7E09508950E940A1C6894B1110C9401
:10381000C11C08950E94A61C88F09F5798F0B92FEC
:103820009927B751B0F0E1F0660F771F881F991FF5
:103830001AF0BA95C9F714C0B13091F00E94C01CBB
:10384000B1E008950C94C01C672F782F8827B85FCB
:1038500039F0B93FCCF3869577956795B395D9F74D
:103860003EF490958095709561957F4F8F4F9F4F57
:103870000895E89409C097FB3EF490958095709563
:1038800061957F4F8F4F9F4F9923A9F0F92F96E9AC
:10389000BB279395F695879577956795B795F11121
:1038A000F8CFFAF4BB0F11F460FF1BC06F5F7F4FBE
:1038B0008F4F9F4F16C0882311F096E911C07723D0
:1038C00021F09EE8872F762F05C0662371F096E8D9
:1038D000862F70E060E02AF09A95660F771F881FA8
:1038E000DAF7880F9695879597F9089597F99F6766
:1038F00080E870E060E008959FEF80EC0895002478
:103900000A941616170618060906089500240A9444
:1039100012161306140605060895092E0394000CCA
:1039200011F4882352F0BB0F40F4BF2B11F460FF59
:1039300004C06F5F7F4F8F4F9F4F089557FD905882
:10394000440F551F59F05F3F71F04795880F97FB63
:10395000991F61F09F3F79F087950895121613061D
:103960001406551FF2CF4695F1DF08C0161617064C
:103970001806991FF1CF8695710561050894089581
:10398000E894BB2766277727CB0197F908950E9413
:10399000DA1C0C948D1C0E947F1C38F00E94861C3F
:1039A00020F0952311F00C94761C0C947C1C1124AF
:1039B0000C94C11C0E949E1C70F3959FC1F3950F3F
:1039C00050E0551F629FF001729FBB27F00DB11DA3
:1039D000639FAA27F00DB11DAA1F649F6627B00D33
:1039E000A11D661F829F2227B00DA11D621F739F1C
:1039F000B00DA11D621F839FA00D611D221F749F2A
:103A00003327A00D611D231F849F600D211D822F70
:103A1000762F6A2F11249F5750409AF0F1F0882397
:103A20004AF0EE0FFF1FBB1F661F771F881F9150C4
:103A30005040A9F79E3F510580F00C94761C0C94E1
:103A4000C11C5F3FE4F3983ED4F386957795679564
:103A5000B795F795E7959F5FC1F7FE2B880F911DEE
:103A60009695879597F90895991B79E004C0991F59
:103A7000961708F0961B881F7A95C9F780950895C8
:103A8000AA1BBB1B51E107C0AA1FBB1FA617B70784
:103A900010F0A61BB70B881F991F5A95A9F78095A0
:103AA0009095BC01CD01089597FB072E16F4009464
:103AB00007D077FD09D00E94401D07FC05D03EF4D9
:103AC000909581959F4F0895709561957F4F0895CA
:103AD0000E94151BB7FF0895821B930B0895EE0FEC
:0E3AE000FF1F0590F491E02D0994F894FFCF9C
:103AEE00BA00BA0000000000000000010000000053
:103AFE00000000000000000000000002090605039F
:103B0E00100C0A0BDC05DC05DC05DC05DC05DC0530
:103B1E00DC05E8037EDE05DE05DE05DE05DE05DE00
:103B2E0005DE05DE05DE05DE05DE05DE0546724533
:063B3E00414B00000000F5
:00000001FF
